{
  "transactions": [
    {
      "hash": "0x7a7f76b6df536ab592462867a43f477c3b7318a81d8c92236d26134533e7342e",
      "transactionType": "CALL",
      "contractName": null,
      "contractAddress": "0x31c86930c933e7ac0f9b84187b7cfe776335f678",
      "function": "createCampaign(string,string,uint256,uint64,uint256)",
      "arguments": [
        "Test Campaign",
        "This is a test campaign",
        "100000000",
        "1754733392",
        "2000000"
      ],
      "transaction": {
        "from": "0x3d849a98e5147a416f63f0b7c664b861b234ef5f",
        "to": "0x31c86930c933e7ac0f9b84187b7cfe776335f678",
        "gas": "0x3a975",
        "value": "0x0",
        "input": "0x1b9621e000000000000000000000000000000000000000000000000000000000000000a000000000000000000000000000000000000000000000000000000000000000e00000000000000000000000000000000000000000000000000000000005f5e1000000000000000000000000000000000000000000000000000000000068971b5000000000000000000000000000000000000000000000000000000000001e8480000000000000000000000000000000000000000000000000000000000000000d546573742043616d706169676e00000000000000000000000000000000000000000000000000000000000000000000000000000000000000000000000000001754686973206973206120746573742063616d706169676e000000000000000000",
        "nonce": "0x9",
        "chainId": "0x14a34"
      },
      "additionalContracts": [],
      "isFixedGasLimit": false
    }
  ],
  "receipts": [
    {
      "status": "0x1",
      "cumulativeGasUsed": "0xe2e7f",
      "logs": [
        {
          "address": "0x31c86930c933e7ac0f9b84187b7cfe776335f678",
          "topics": [
            "0x610ef80c06b13af92a2fea0c71e3a5eb643a09c80a8fda0a0139e256d2db3e02",
            "0x0000000000000000000000000000000000000000000000000000000000000003",
            "0x0000000000000000000000003d849a98e5147a416f63f0b7c664b861b234ef5f"
          ],
          "data": "0x000000000000000000000000000000000000000000000000000000000000008000000000000000000000000000000000000000000000000000000000000000c00000000000000000000000000000000000000000000000000000000005f5e1000000000000000000000000000000000000000000000000000000000068971b50000000000000000000000000000000000000000000000000000000000000000d546573742043616d706169676e00000000000000000000000000000000000000000000000000000000000000000000000000000000000000000000000000001754686973206973206120746573742063616d706169676e000000000000000000",
          "blockHash": "0xdc1bdced9544f0d55f10eeeab031bdb7e459e7d21d9bb17827e492f5c474258f",
          "blockNumber": "0x1ae17bd",
          "blockTimestamp": "0x686f8e5a",
          "transactionHash": "0x7a7f76b6df536ab592462867a43f477c3b7318a81d8c92236d26134533e7342e",
          "transactionIndex": "0x3",
          "logIndex": "0x17",
          "removed": false
        }
      ],
      "logsBloom": "0x00000000000000000000000000000010000000000000000000000000000000000000000008000000040000800000000000000000020000000000000000000000000000000000000000000000000000000000000000000000000000000000000000000000000000000000000000000000000000000000000000800000000000000000000000000000000000000000000000000002000000000000000000000000000000000000000000000000000000000000408000800000000000000000400000000000000000000000000000000000000000000000000000000000000000000000000000000000800000000000000000000000000000000000000000000000",
      "type": "0x2",
      "transactionHash": "0x7a7f76b6df536ab592462867a43f477c3b7318a81d8c92236d26134533e7342e",
      "transactionIndex": "0x3",
      "blockHash": "0xdc1bdced9544f0d55f10eeeab031bdb7e459e7d21d9bb17827e492f5c474258f",
      "blockNumber": "0x1ae17bd",
      "gasUsed": "0x2a6b4",
      "effectiveGasPrice": "0xf4378",
      "from": "0x3d849a98e5147a416f63f0b7c664b861b234ef5f",
      "to": "0x31c86930c933e7ac0f9b84187b7cfe776335f678",
      "contractAddress": null,
      "l1BaseFeeScalar": "0x44d",
      "l1BlobBaseFee": "0xd",
      "l1BlobBaseFeeScalar": "0xa118b",
      "l1Fee": "0x1cb24d",
      "l1GasPrice": "0xc8c92",
      "l1GasUsed": "0x81b"
    }
  ],
  "libraries": [],
  "pending": [],
  "returns": {},
  "timestamp": 1752141400,
  "chain": 84532,
  "commit": "ba2180c"
}