{
  "transactions": [
    {
      "hash": "0xa3526cf0fab0be0c2a1135e2f2ffda71cd8b22b5f823e24f0e93dc843da3074f",
      "transactionType": "CALL",
      "contractName": null,
      "contractAddress": "0x4d2df3bcabf854d0243526ebc5a70a7e09a5cfa6",
      "function": "createCampaign(string,string,uint256,uint64,uint256)",
      "arguments": [
        "Test Campaign",
        "This is a test campaign",
        "100000000",
        "1752142334",
        "2000000"
      ],
      "transaction": {
        "from": "0x3d849a98e5147a416f63f0b7c664b861b234ef5f",
        "to": "0x4d2df3bcabf854d0243526ebc5a70a7e09a5cfa6",
        "gas": "0x3a9d1",
        "value": "0x0",
        "input": "0x1b9621e000000000000000000000000000000000000000000000000000000000000000a000000000000000000000000000000000000000000000000000000000000000e00000000000000000000000000000000000000000000000000000000005f5e10000000000000000000000000000000000000000000000000000000000686f91fe00000000000000000000000000000000000000000000000000000000001e8480000000000000000000000000000000000000000000000000000000000000000d546573742043616d706169676e00000000000000000000000000000000000000000000000000000000000000000000000000000000000000000000000000001754686973206973206120746573742063616d706169676e000000000000000000",
        "nonce": "0x14",
        "chainId": "0x14a34"
      },
      "additionalContracts": [],
      "isFixedGasLimit": false
    }
  ],
  "receipts": [
    {
      "status": "0x1",
      "cumulativeGasUsed": "0x5a6c1",
      "logs": [
        {
          "address": "0x4d2df3bcabf854d0243526ebc5a70a7e09a5cfa6",
          "topics": [
            "0x610ef80c06b13af92a2fea0c71e3a5eb643a09c80a8fda0a0139e256d2db3e02",
            "0x0000000000000000000000000000000000000000000000000000000000000002",
            "0x0000000000000000000000003d849a98e5147a416f63f0b7c664b861b234ef5f"
          ],
          "data": "0x000000000000000000000000000000000000000000000000000000000000008000000000000000000000000000000000000000000000000000000000000000c00000000000000000000000000000000000000000000000000000000005f5e10000000000000000000000000000000000000000000000000000000000686f91fe000000000000000000000000000000000000000000000000000000000000000d546573742043616d706169676e00000000000000000000000000000000000000000000000000000000000000000000000000000000000000000000000000001754686973206973206120746573742063616d706169676e000000000000000000",
          "blockHash": "0x33234afaa1527e2f087a101ac115ab44263f29892ab4bf6708b59b18f8e5f625",
          "blockNumber": "0x1ae195a",
          "blockTimestamp": "0x686f9194",
          "transactionHash": "0xa3526cf0fab0be0c2a1135e2f2ffda71cd8b22b5f823e24f0e93dc843da3074f",
          "transactionIndex": "0x3",
          "logIndex": "0x4",
          "removed": false
        }
      ],
      "logsBloom": "0x04000000000000000000000000000010000000000800000000000000000000000000000008000000040000000000000000000000000000000000000000000000000000000000000000000000400000000000000000000000000000000000000000000000000000000000000000000000000000000000000000800000000000000000000000000000000000000000000000000000000000000000000000000000000800000000000000000100000000000000408000000000000000000000000000000000000000000000000000000000000000000000000000000000000000000000000000000000000000000000000000000000008000000000000000000000",
      "type": "0x2",
      "transactionHash": "0xa3526cf0fab0be0c2a1135e2f2ffda71cd8b22b5f823e24f0e93dc843da3074f",
      "transactionIndex": "0x3",
      "blockHash": "0x33234afaa1527e2f087a101ac115ab44263f29892ab4bf6708b59b18f8e5f625",
      "blockNumber": "0x1ae195a",
      "gasUsed": "0x2a6f7",
      "effectiveGasPrice": "0xf4352",
      "from": "0x3d849a98e5147a416f63f0b7c664b861b234ef5f",
      "to": "0x4d2df3bcabf854d0243526ebc5a70a7e09a5cfa6",
      "contractAddress": null,
      "l1BaseFeeScalar": "0x44d",
      "l1BlobBaseFee": "0x9",
      "l1BlobBaseFeeScalar": "0xa118b",
      "l1Fee": "0x1c9dba",
      "l1GasPrice": "0xc8427",
      "l1GasUsed": "0x81b"
    }
  ],
  "libraries": [],
  "pending": [],
  "returns": {},
  "timestamp": 1752142226,
  "chain": 84532,
  "commit": "ba2180c"
}