{
  "transactions": [
    {
      "hash": "0x260a9e3a5d55a555e0c44fa7ee53dbf2498001d3cc04108ff638f11ff3e5fa3f",
      "transactionType": "CALL",
      "contractName": null,
      "contractAddress": "0x24b413af0731fb6a49dcc906ea88b81437059d10",
      "function": "createCampaign(string,string,uint256,uint64,uint256)",
      "arguments": [
        "Test Campaign",
        "This is a test campaign",
        "100000000",
        "1752144232",
        "2000000"
      ],
      "transaction": {
        "from": "0x3d849a98e5147a416f63f0b7c664b861b234ef5f",
        "to": "0x24b413af0731fb6a49dcc906ea88b81437059d10",
        "gas": "0x442ac",
        "value": "0x0",
        "input": "0x1b9621e000000000000000000000000000000000000000000000000000000000000000a000000000000000000000000000000000000000000000000000000000000000e00000000000000000000000000000000000000000000000000000000005f5e10000000000000000000000000000000000000000000000000000000000686f996800000000000000000000000000000000000000000000000000000000001e8480000000000000000000000000000000000000000000000000000000000000000d546573742043616d706169676e00000000000000000000000000000000000000000000000000000000000000000000000000000000000000000000000000001754686973206973206120746573742063616d706169676e000000000000000000",
        "nonce": "0x34",
        "chainId": "0x14a34"
      },
      "additionalContracts": [],
      "isFixedGasLimit": false
    }
  ],
  "receipts": [
    {
      "status": "0x1",
      "cumulativeGasUsed": "0x8a98f3",
      "logs": [
        {
          "address": "0x24b413af0731fb6a49dcc906ea88b81437059d10",
          "topics": [
            "0x610ef80c06b13af92a2fea0c71e3a5eb643a09c80a8fda0a0139e256d2db3e02",
            "0x0000000000000000000000000000000000000000000000000000000000000001",
            "0x0000000000000000000000003d849a98e5147a416f63f0b7c664b861b234ef5f"
          ],
          "data": "0x000000000000000000000000000000000000000000000000000000000000008000000000000000000000000000000000000000000000000000000000000000c00000000000000000000000000000000000000000000000000000000005f5e10000000000000000000000000000000000000000000000000000000000686f9968000000000000000000000000000000000000000000000000000000000000000d546573742043616d706169676e00000000000000000000000000000000000000000000000000000000000000000000000000000000000000000000000000001754686973206973206120746573742063616d706169676e000000000000000000",
          "blockHash": "0xdd1f84c139840647ec4fc2bbdacdfd5d94ef41c7f309ef545ad4fbc03ecc75be",
          "blockNumber": "0x1ae1d0c",
          "blockTimestamp": "0x686f98f8",
          "transactionHash": "0x260a9e3a5d55a555e0c44fa7ee53dbf2498001d3cc04108ff638f11ff3e5fa3f",
          "transactionIndex": "0x22",
          "logIndex": "0x106",
          "removed": false
        }
      ],
      "logsBloom": "0x00000000000000000000000000000010000000000000000000000000000000000000000008000000040000000000000000000000000000000010000000040000000000000000000000000000000000000000000000040000000000000000000000000000000000000000000000000000000000000000000000800000000000000000000000000000000000000000000000000000000000000000000000000001000000000000020000000000000000000000408000000000000000000000000000000000000000000000000000000000000000000000000000000000000040000000000000000000000000000000000000000000000000000000000000000000",
      "type": "0x2",
      "transactionHash": "0x260a9e3a5d55a555e0c44fa7ee53dbf2498001d3cc04108ff638f11ff3e5fa3f",
      "transactionIndex": "0x22",
      "blockHash": "0xdd1f84c139840647ec4fc2bbdacdfd5d94ef41c7f309ef545ad4fbc03ecc75be",
      "blockNumber": "0x1ae1d0c",
      "gasUsed": "0x2e9c3",
      "effectiveGasPrice": "0xf432a",
      "from": "0x3d849a98e5147a416f63f0b7c664b861b234ef5f",
      "to": "0x24b413af0731fb6a49dcc906ea88b81437059d10",
      "contractAddress": null,
      "l1BaseFeeScalar": "0x44d",
      "l1BlobBaseFee": "0x6",
      "l1BlobBaseFeeScalar": "0xa118b",
      "l1Fee": "0x1ecb56",
      "l1GasPrice": "0xd7895",
      "l1GasUsed": "0x81b"
    }
  ],
  "libraries": [],
  "pending": [],
  "returns": {},
  "timestamp": 1752144119,
  "chain": 84532,
  "commit": "d1a6b11"
}