{
  "transactions": [
    {
      "hash": "0xa6a5c78affaa35183c693268dc6ee66c02e379885fecacfd39916a1b33d81816",
      "transactionType": "CALL",
      "contractName": null,
      "contractAddress": "0x0f484032c3849b0f91eb0e55b936e71190d7c44e",
      "function": "createCampaign(string,string,uint256,uint64,uint256)",
      "arguments": [
        "Test Campaign",
        "This is a test campaign",
        "100000000",
        "1752143220",
        "2000000"
      ],
      "transaction": {
        "from": "0x3d849a98e5147a416f63f0b7c664b861b234ef5f",
        "to": "0x0f484032c3849b0f91eb0e55b936e71190d7c44e",
        "gas": "0x442ac",
        "value": "0x0",
        "input": "0x1b9621e000000000000000000000000000000000000000000000000000000000000000a000000000000000000000000000000000000000000000000000000000000000e00000000000000000000000000000000000000000000000000000000005f5e10000000000000000000000000000000000000000000000000000000000686f957400000000000000000000000000000000000000000000000000000000001e8480000000000000000000000000000000000000000000000000000000000000000d546573742043616d706169676e00000000000000000000000000000000000000000000000000000000000000000000000000000000000000000000000000001754686973206973206120746573742063616d706169676e000000000000000000",
        "nonce": "0x21",
        "chainId": "0x14a34"
      },
      "additionalContracts": [],
      "isFixedGasLimit": false
    }
  ],
  "receipts": [
    {
      "status": "0x1",
      "cumulativeGasUsed": "0x15957b",
      "logs": [
        {
          "address": "0x0f484032c3849b0f91eb0e55b936e71190d7c44e",
          "topics": [
            "0x610ef80c06b13af92a2fea0c71e3a5eb643a09c80a8fda0a0139e256d2db3e02",
            "0x0000000000000000000000000000000000000000000000000000000000000001",
            "0x0000000000000000000000003d849a98e5147a416f63f0b7c664b861b234ef5f"
          ],
          "data": "0x000000000000000000000000000000000000000000000000000000000000008000000000000000000000000000000000000000000000000000000000000000c00000000000000000000000000000000000000000000000000000000005f5e10000000000000000000000000000000000000000000000000000000000686f9574000000000000000000000000000000000000000000000000000000000000000d546573742043616d706169676e00000000000000000000000000000000000000000000000000000000000000000000000000000000000000000000000000001754686973206973206120746573742063616d706169676e000000000000000000",
          "blockHash": "0xc3d938a8d402c0e48759bcec90ecbea83e16bebd98d219d12bd2cb39ed5d373f",
          "blockNumber": "0x1ae1b13",
          "blockTimestamp": "0x686f9506",
          "transactionHash": "0xa6a5c78affaa35183c693268dc6ee66c02e379885fecacfd39916a1b33d81816",
          "transactionIndex": "0x7",
          "logIndex": "0x27",
          "removed": false
        }
      ],
      "logsBloom": "0x00000000000000000000000000000010000000000000000000000004000000000000000008000000040000000000000000000004000000000000000000040000000000000000000000000000000000000000000000040000000000000000000000000000000000000000000000000000000000000000000000800000000000000000000000000000000000000000000000000000000000000000000000000000000000000000000000000000000000004000408000000000000000000000000000000000000000000000000000000000000000000000000000000000000040000000000000000000000000000000000000000000000000000000000000000000",
      "type": "0x2",
      "transactionHash": "0xa6a5c78affaa35183c693268dc6ee66c02e379885fecacfd39916a1b33d81816",
      "transactionIndex": "0x7",
      "blockHash": "0xc3d938a8d402c0e48759bcec90ecbea83e16bebd98d219d12bd2cb39ed5d373f",
      "blockNumber": "0x1ae1b13",
      "gasUsed": "0x2e9c3",
      "effectiveGasPrice": "0xf436c",
      "from": "0x3d849a98e5147a416f63f0b7c664b861b234ef5f",
      "to": "0x0f484032c3849b0f91eb0e55b936e71190d7c44e",
      "contractAddress": null,
      "l1BaseFeeScalar": "0x44d",
      "l1BlobBaseFee": "0x7",
      "l1BlobBaseFeeScalar": "0xa118b",
      "l1Fee": "0x167859",
      "l1GasPrice": "0x9d3fe",
      "l1GasUsed": "0x81b"
    }
  ],
  "libraries": [],
  "pending": [],
  "returns": {},
  "timestamp": 1752143108,
  "chain": 84532,
  "commit": "ba2180c"
}