{
  "transactions": [
    {
      "hash": "0xb5df952622b08e2840578d7f97e02bfb001bbc6e2d9681c628f23d999b1dfcf9",
      "transactionType": "CALL",
      "contractName": null,
      "contractAddress": "0x31c86930c933e7ac0f9b84187b7cfe776335f678",
      "function": "createCampaign(string,string,uint256,uint64,uint256)",
      "arguments": [
        "Test Campaign",
        "This is a test campaign",
        "100000000",
        "1754733108",
        "2000000"
      ],
      "transaction": {
        "from": "0x3d849a98e5147a416f63f0b7c664b861b234ef5f",
        "to": "0x31c86930c933e7ac0f9b84187b7cfe776335f678",
        "gas": "0x3a975",
        "value": "0x0",
        "input": "0x1b9621e000000000000000000000000000000000000000000000000000000000000000a000000000000000000000000000000000000000000000000000000000000000e00000000000000000000000000000000000000000000000000000000005f5e1000000000000000000000000000000000000000000000000000000000068971a3400000000000000000000000000000000000000000000000000000000001e8480000000000000000000000000000000000000000000000000000000000000000d546573742043616d706169676e00000000000000000000000000000000000000000000000000000000000000000000000000000000000000000000000000001754686973206973206120746573742063616d706169676e000000000000000000",
        "nonce": "0x7",
        "chainId": "0x14a34"
      },
      "additionalContracts": [],
      "isFixedGasLimit": false
    }
  ],
  "receipts": [
    {
      "status": "0x1",
      "cumulativeGasUsed": "0x68c1f4",
      "logs": [
        {
          "address": "0x31c86930c933e7ac0f9b84187b7cfe776335f678",
          "topics": [
            "0x610ef80c06b13af92a2fea0c71e3a5eb643a09c80a8fda0a0139e256d2db3e02",
            "0x0000000000000000000000000000000000000000000000000000000000000002",
            "0x0000000000000000000000003d849a98e5147a416f63f0b7c664b861b234ef5f"
          ],
          "data": "0x000000000000000000000000000000000000000000000000000000000000008000000000000000000000000000000000000000000000000000000000000000c00000000000000000000000000000000000000000000000000000000005f5e1000000000000000000000000000000000000000000000000000000000068971a34000000000000000000000000000000000000000000000000000000000000000d546573742043616d706169676e00000000000000000000000000000000000000000000000000000000000000000000000000000000000000000000000000001754686973206973206120746573742063616d706169676e000000000000000000",
          "blockHash": "0xbad1a157107db36b2b416fb18a928ce01d25cdef3482b051a8e6befe04b9ea57",
          "blockNumber": "0x1ae172e",
          "blockTimestamp": "0x686f8d3c",
          "transactionHash": "0xb5df952622b08e2840578d7f97e02bfb001bbc6e2d9681c628f23d999b1dfcf9",
          "transactionIndex": "0x15",
          "logIndex": "0xb3",
          "removed": false
        }
      ],
      "logsBloom": "0x04000000000000000000000000000010000000000000000000000000000000000000000008000000040000800000000000000000000000000000000000000000000000000000000000000000000000000000000000000000000000000000000000000000000000000000000000000000000000000000000000800000000000000000000000000000000000000000000000000002000000000000000000000000000000000000000000000100000000000000408000000000000000000000000000000000000000000000000000000000000000000000000000000000000000000000000000000000800000000000000000000000008000000000000000000000",
      "type": "0x2",
      "transactionHash": "0xb5df952622b08e2840578d7f97e02bfb001bbc6e2d9681c628f23d999b1dfcf9",
      "transactionIndex": "0x15",
      "blockHash": "0xbad1a157107db36b2b416fb18a928ce01d25cdef3482b051a8e6befe04b9ea57",
      "blockNumber": "0x1ae172e",
      "gasUsed": "0x2a6b4",
      "effectiveGasPrice": "0xece08",
      "from": "0x3d849a98e5147a416f63f0b7c664b861b234ef5f",
      "to": "0x31c86930c933e7ac0f9b84187b7cfe776335f678",
      "contractAddress": null,
      "l1BaseFeeScalar": "0x44d",
      "l1BlobBaseFee": "0xe",
      "l1BlobBaseFeeScalar": "0xa118b",
      "l1Fee": "0x141299",
      "l1GasPrice": "0x8c66a",
      "l1GasUsed": "0x81b"
    }
  ],
  "libraries": [],
  "pending": [],
  "returns": {},
  "timestamp": 1752141115,
  "chain": 84532,
  "commit": "ba2180c"
}