{
  "transactions": [
    {
      "hash": "0x9efe7dc90b452b47fbe1604a515abccfc1a567f00a48e62f7970996755eece5f",
      "transactionType": "CALL",
      "contractName": null,
      "contractAddress": "0x3561553a2fedad291972be27d35f85b7be555c90",
      "function": "createCampaign(string,string,uint256,uint64,uint256)",
      "arguments": [
        "Test Campaign",
        "This is a test campaign",
        "100000000",
        "1754733592",
        "2000000"
      ],
      "transaction": {
        "from": "0x3d849a98e5147a416f63f0b7c664b861b234ef5f",
        "to": "0x3561553a2fedad291972be27d35f85b7be555c90",
        "gas": "0x442ac",
        "value": "0x0",
        "input": "0x1b9621e000000000000000000000000000000000000000000000000000000000000000a000000000000000000000000000000000000000000000000000000000000000e00000000000000000000000000000000000000000000000000000000005f5e1000000000000000000000000000000000000000000000000000000000068971c1800000000000000000000000000000000000000000000000000000000001e8480000000000000000000000000000000000000000000000000000000000000000d546573742043616d706169676e00000000000000000000000000000000000000000000000000000000000000000000000000000000000000000000000000001754686973206973206120746573742063616d706169676e000000000000000000",
        "nonce": "0xc",
        "chainId": "0x14a34"
      },
      "additionalContracts": [],
      "isFixedGasLimit": false
    }
  ],
  "receipts": [
    {
      "status": "0x1",
      "cumulativeGasUsed": "0x609fb4",
      "logs": [
        {
          "address": "0x3561553a2fedad291972be27d35f85b7be555c90",
          "topics": [
            "0x610ef80c06b13af92a2fea0c71e3a5eb643a09c80a8fda0a0139e256d2db3e02",
            "0x0000000000000000000000000000000000000000000000000000000000000001",
            "0x0000000000000000000000003d849a98e5147a416f63f0b7c664b861b234ef5f"
          ],
          "data": "0x000000000000000000000000000000000000000000000000000000000000008000000000000000000000000000000000000000000000000000000000000000c00000000000000000000000000000000000000000000000000000000005f5e1000000000000000000000000000000000000000000000000000000000068971c18000000000000000000000000000000000000000000000000000000000000000d546573742043616d706169676e00000000000000000000000000000000000000000000000000000000000000000000000000000000000000000000000000001754686973206973206120746573742063616d706169676e000000000000000000",
          "blockHash": "0xe17db87b5e24c384b7c0ef5e43bcfdacb06b76f8e42b6ba07cb4785f29a15389",
          "blockNumber": "0x1ae1820",
          "transactionHash": "0x9efe7dc90b452b47fbe1604a515abccfc1a567f00a48e62f7970996755eece5f",
          "transactionIndex": "0x14",
          "logIndex": "0xe0",
          "removed": false
        }
      ],
      "logsBloom": "0x00000000000000000000000000000010000000000000000000000000000000000000000008000000040000000000000000000000000000000000000000040000000000000000000000000000000000000000000000040000000000000000000000000000000000000000000000000000000000000000000000800000000000000000000000000000004000000000000000000000000000000000000000000000000000000000000000000000000000000200408000000000000000000000000008000000000000000000000000000000000000000000000000000000000040000000000000000000000000000000000000000000000000000000000000000000",
      "type": "0x2",
      "transactionHash": "0x9efe7dc90b452b47fbe1604a515abccfc1a567f00a48e62f7970996755eece5f",
      "transactionIndex": "0x14",
      "blockHash": "0xe17db87b5e24c384b7c0ef5e43bcfdacb06b76f8e42b6ba07cb4785f29a15389",
      "blockNumber": "0x1ae1820",
      "gasUsed": "0x2e9c3",
      "effectiveGasPrice": "0xf42e9",
      "from": "0x3d849a98e5147a416f63f0b7c664b861b234ef5f",
      "to": "0x3561553a2fedad291972be27d35f85b7be555c90",
      "contractAddress": null,
      "l1BaseFeeScalar": "0x44d",
      "l1BlobBaseFee": "0xb",
      "l1BlobBaseFeeScalar": "0xa118b",
      "l1Fee": "0x183a8a",
      "l1GasPrice": "0xa9865",
      "l1GasUsed": "0x81b"
    }
  ],
  "libraries": [],
  "pending": [],
  "returns": {},
  "timestamp": 1752141601,
  "chain": 84532,
  "commit": "ba2180c"
}