{
  "transactions": [
    {
      "hash": "0xbc799b72c69bb7b907aec1e72aa6f7d286b2671048ea71ac5f4bbae99b027b90",
      "transactionType": "CALL",
      "contractName": null,
      "contractAddress": "0x7c1edbf8ccdf2342c8c2c9b741a5c14bf6dfd834",
      "function": "createCampaign(string,string,uint256,uint64,uint256)",
      "arguments": [
        "Test Campaign",
        "This is a test campaign",
        "100000000",
        "1752142614",
        "2000000"
      ],
      "transaction": {
        "from": "0x3d849a98e5147a416f63f0b7c664b861b234ef5f",
        "to": "0x7c1edbf8ccdf2342c8c2c9b741a5c14bf6dfd834",
        "gas": "0x442ac",
        "value": "0x0",
        "input": "0x1b9621e000000000000000000000000000000000000000000000000000000000000000a000000000000000000000000000000000000000000000000000000000000000e00000000000000000000000000000000000000000000000000000000005f5e10000000000000000000000000000000000000000000000000000000000686f931600000000000000000000000000000000000000000000000000000000001e8480000000000000000000000000000000000000000000000000000000000000000d546573742043616d706169676e00000000000000000000000000000000000000000000000000000000000000000000000000000000000000000000000000001754686973206973206120746573742063616d706169676e000000000000000000",
        "nonce": "0x1b",
        "chainId": "0x14a34"
      },
      "additionalContracts": [],
      "isFixedGasLimit": false
    }
  ],
  "receipts": [
    {
      "status": "0x1",
      "cumulativeGasUsed": "0x897422",
      "logs": [
        {
          "address": "0x7c1edbf8ccdf2342c8c2c9b741a5c14bf6dfd834",
          "topics": [
            "0x610ef80c06b13af92a2fea0c71e3a5eb643a09c80a8fda0a0139e256d2db3e02",
            "0x0000000000000000000000000000000000000000000000000000000000000001",
            "0x0000000000000000000000003d849a98e5147a416f63f0b7c664b861b234ef5f"
          ],
          "data": "0x000000000000000000000000000000000000000000000000000000000000008000000000000000000000000000000000000000000000000000000000000000c00000000000000000000000000000000000000000000000000000000005f5e10000000000000000000000000000000000000000000000000000000000686f9316000000000000000000000000000000000000000000000000000000000000000d546573742043616d706169676e00000000000000000000000000000000000000000000000000000000000000000000000000000000000000000000000000001754686973206973206120746573742063616d706169676e000000000000000000",
          "blockHash": "0x1854080ce0429ef0c862cf23eaf29b5f940dd1f50f05e64511021154ee3fc9b0",
          "blockNumber": "0x1ae19e3",
          "blockTimestamp": "0x686f92a6",
          "transactionHash": "0xbc799b72c69bb7b907aec1e72aa6f7d286b2671048ea71ac5f4bbae99b027b90",
          "transactionIndex": "0x19",
          "logIndex": "0x15d",
          "removed": false
        }
      ],
      "logsBloom": "0x00000000000000000000000000000010000000000000000000000000000000000000000008000000040000000000000000000000000000000000000000040000000000000000000000000000000000000000000000040000000000000000000000000000000000000000000000400000000000000000000000800000000000000000000000000000000000000000000000000000000400000000000000000000000000000000000000000000000000000000408000000000000000000000000000000000000000000000000000000000000000000000000000000000000040000000000000000000000000000000400000000000000000000000000000000000",
      "type": "0x2",
      "transactionHash": "0xbc799b72c69bb7b907aec1e72aa6f7d286b2671048ea71ac5f4bbae99b027b90",
      "transactionIndex": "0x19",
      "blockHash": "0x1854080ce0429ef0c862cf23eaf29b5f940dd1f50f05e64511021154ee3fc9b0",
      "blockNumber": "0x1ae19e3",
      "gasUsed": "0x2e9c3",
      "effectiveGasPrice": "0xf4350",
      "from": "0x3d849a98e5147a416f63f0b7c664b861b234ef5f",
      "to": "0x7c1edbf8ccdf2342c8c2c9b741a5c14bf6dfd834",
      "contractAddress": null,
      "l1BaseFeeScalar": "0x44d",
      "l1BlobBaseFee": "0x9",
      "l1BlobBaseFeeScalar": "0xa118b",
      "l1Fee": "0x16882f",
      "l1GasPrice": "0x9daa1",
      "l1GasUsed": "0x81b"
    }
  ],
  "libraries": [],
  "pending": [],
  "returns": {},
  "timestamp": 1752142501,
  "chain": 84532,
  "commit": "ba2180c"
}