{
  "transactions": [
    {
      "hash": "0x60f7a271f239fb0cfb06abbdceb0daed7e8093583f5bb730d628f7286de02e99",
      "transactionType": "CALL",
      "contractName": null,
      "contractAddress": "0x4d2df3bcabf854d0243526ebc5a70a7e09a5cfa6",
      "function": "createCampaign(string,string,uint256,uint64,uint256)",
      "arguments": [
        "Test Campaign",
        "This is a test campaign",
        "100000000",
        "1752142466",
        "2000000"
      ],
      "transaction": {
        "from": "0x3d849a98e5147a416f63f0b7c664b861b234ef5f",
        "to": "0x4d2df3bcabf854d0243526ebc5a70a7e09a5cfa6",
        "gas": "0x3a9d1",
        "value": "0x0",
        "input": "0x1b9621e000000000000000000000000000000000000000000000000000000000000000a000000000000000000000000000000000000000000000000000000000000000e00000000000000000000000000000000000000000000000000000000005f5e10000000000000000000000000000000000000000000000000000000000686f928200000000000000000000000000000000000000000000000000000000001e8480000000000000000000000000000000000000000000000000000000000000000d546573742043616d706169676e00000000000000000000000000000000000000000000000000000000000000000000000000000000000000000000000000001754686973206973206120746573742063616d706169676e000000000000000000",
        "nonce": "0x18",
        "chainId": "0x14a34"
      },
      "additionalContracts": [],
      "isFixedGasLimit": false
    }
  ],
  "receipts": [
    {
      "status": "0x1",
      "cumulativeGasUsed": "0x3d2455",
      "logs": [
        {
          "address": "0x4d2df3bcabf854d0243526ebc5a70a7e09a5cfa6",
          "topics": [
            "0x610ef80c06b13af92a2fea0c71e3a5eb643a09c80a8fda0a0139e256d2db3e02",
            "0x0000000000000000000000000000000000000000000000000000000000000003",
            "0x0000000000000000000000003d849a98e5147a416f63f0b7c664b861b234ef5f"
          ],
          "data": "0x000000000000000000000000000000000000000000000000000000000000008000000000000000000000000000000000000000000000000000000000000000c00000000000000000000000000000000000000000000000000000000005f5e10000000000000000000000000000000000000000000000000000000000686f9282000000000000000000000000000000000000000000000000000000000000000d546573742043616d706169676e00000000000000000000000000000000000000000000000000000000000000000000000000000000000000000000000000001754686973206973206120746573742063616d706169676e000000000000000000",
          "blockHash": "0x52f45930dbd88021c625c72f9e7ae692648dec770dacf4923b4369e12c43b4e9",
          "blockNumber": "0x1ae1999",
          "transactionHash": "0x60f7a271f239fb0cfb06abbdceb0daed7e8093583f5bb730d628f7286de02e99",
          "transactionIndex": "0xe",
          "logIndex": "0x8e",
          "removed": false
        }
      ],
      "logsBloom": "0x00000000000000000000000000000010000000000800000000000000000000000000000008000000040000000000000000000000020000000000000000000000000000000000000000000000400000000000000000000000000000000000000000000000000000000000000000000000000000000000000000800000000000000000000000000000000000000000000000000000000000000000000000000000000800000000000000000000000000000000408000800000000000000000400000000000000000000000000000000000000000000000000000000000000000000000000000000000000000000000000000000000000000000000000000000000",
      "type": "0x2",
      "transactionHash": "0x60f7a271f239fb0cfb06abbdceb0daed7e8093583f5bb730d628f7286de02e99",
      "transactionIndex": "0xe",
      "blockHash": "0x52f45930dbd88021c625c72f9e7ae692648dec770dacf4923b4369e12c43b4e9",
      "blockNumber": "0x1ae1999",
      "gasUsed": "0x2a6f7",
      "effectiveGasPrice": "0xf42cc",
      "from": "0x3d849a98e5147a416f63f0b7c664b861b234ef5f",
      "to": "0x4d2df3bcabf854d0243526ebc5a70a7e09a5cfa6",
      "contractAddress": null,
      "l1BaseFeeScalar": "0x44d",
      "l1BlobBaseFee": "0x9",
      "l1BlobBaseFeeScalar": "0xa118b",
      "l1Fee": "0x1c5e35",
      "l1GasPrice": "0xc685c",
      "l1GasUsed": "0x81b"
    }
  ],
  "libraries": [],
  "pending": [],
  "returns": {},
  "timestamp": 1752142354,
  "chain": 84532,
  "commit": "ba2180c"
}