{
  "transactions": [
    {
      "hash": "0x21ce9e21cddb1b4a7f3afe43ea99ffa8e177c29321381a8fe2b0f6ee837610c2",
      "transactionType": "CALL",
      "contractName": null,
      "contractAddress": "0x0f484032c3849b0f91eb0e55b936e71190d7c44e",
      "function": "createCampaign(string,string,uint256,uint64,uint256)",
      "arguments": [
        "Test Campaign",
        "This is a test campaign",
        "100000000",
        "1752143428",
        "2000000"
      ],
      "transaction": {
        "from": "0x3d849a98e5147a416f63f0b7c664b861b234ef5f",
        "to": "0x0f484032c3849b0f91eb0e55b936e71190d7c44e",
        "gas": "0x3a9d1",
        "value": "0x0",
        "input": "0x1b9621e000000000000000000000000000000000000000000000000000000000000000a000000000000000000000000000000000000000000000000000000000000000e00000000000000000000000000000000000000000000000000000000005f5e10000000000000000000000000000000000000000000000000000000000686f964400000000000000000000000000000000000000000000000000000000001e8480000000000000000000000000000000000000000000000000000000000000000d546573742043616d706169676e00000000000000000000000000000000000000000000000000000000000000000000000000000000000000000000000000001754686973206973206120746573742063616d706169676e000000000000000000",
        "nonce": "0x23",
        "chainId": "0x14a34"
      },
      "additionalContracts": [],
      "isFixedGasLimit": false
    }
  ],
  "receipts": [
    {
      "status": "0x1",
      "cumulativeGasUsed": "0xcc7440",
      "logs": [
        {
          "address": "0x0f484032c3849b0f91eb0e55b936e71190d7c44e",
          "topics": [
            "0x610ef80c06b13af92a2fea0c71e3a5eb643a09c80a8fda0a0139e256d2db3e02",
            "0x0000000000000000000000000000000000000000000000000000000000000003",
            "0x0000000000000000000000003d849a98e5147a416f63f0b7c664b861b234ef5f"
          ],
          "data": "0x000000000000000000000000000000000000000000000000000000000000008000000000000000000000000000000000000000000000000000000000000000c00000000000000000000000000000000000000000000000000000000005f5e10000000000000000000000000000000000000000000000000000000000686f9644000000000000000000000000000000000000000000000000000000000000000d546573742043616d706169676e00000000000000000000000000000000000000000000000000000000000000000000000000000000000000000000000000001754686973206973206120746573742063616d706169676e000000000000000000",
          "blockHash": "0x3ed96d67af1145597b7a594e1d0710a3e05791b52d4409bd923f4421d336c668",
          "blockNumber": "0x1ae1b7a",
          "blockTimestamp": "0x686f95d4",
          "transactionHash": "0x21ce9e21cddb1b4a7f3afe43ea99ffa8e177c29321381a8fe2b0f6ee837610c2",
          "transactionIndex": "0x1f",
          "logIndex": "0x146",
          "removed": false
        }
      ],
      "logsBloom": "0x00000000000000000000000000000010000000000000000000000004000000000000000008000000040000000000000000000004020000000000000000000000000000000000000000000000000000000000000000000000000000000000000000000000000000000000000000000000000000000000000000800000000000000000000000000000000000000000000000000000000000000000000000000000000000000000000000000000000000004000408000800000000000000000400000000000000000000000000000000000000000000000000000000000000000000000000000000000000000000000000000000000000000000000000000000000",
      "type": "0x2",
      "transactionHash": "0x21ce9e21cddb1b4a7f3afe43ea99ffa8e177c29321381a8fe2b0f6ee837610c2",
      "transactionIndex": "0x1f",
      "blockHash": "0x3ed96d67af1145597b7a594e1d0710a3e05791b52d4409bd923f4421d336c668",
      "blockNumber": "0x1ae1b7a",
      "gasUsed": "0x2a6f7",
      "effectiveGasPrice": "0xf437c",
      "from": "0x3d849a98e5147a416f63f0b7c664b861b234ef5f",
      "to": "0x0f484032c3849b0f91eb0e55b936e71190d7c44e",
      "contractAddress": null,
      "l1BaseFeeScalar": "0x44d",
      "l1BlobBaseFee": "0x8",
      "l1BlobBaseFeeScalar": "0xa118b",
      "l1Fee": "0x151699",
      "l1GasPrice": "0x9390f",
      "l1GasUsed": "0x81b"
    }
  ],
  "libraries": [],
  "pending": [],
  "returns": {},
  "timestamp": 1752143315,
  "chain": 84532,
  "commit": "d1a6b11"
}