{
  "transactions": [
    {
      "hash": "0x32b2773751a1e61ad028b0b9eab8b8dc3c3410616b90e18dd0c3972d2e280aa2",
      "transactionType": "CALL",
      "contractName": null,
      "contractAddress": "0x31c86930c933e7ac0f9b84187b7cfe776335f678",
      "function": "createCampaign(string,string,uint256,uint64,uint256)",
      "arguments": [
        "Test Campaign",
        "This is a test campaign",
        "100000000",
        "1754733446",
        "2000000"
      ],
      "transaction": {
        "from": "0x3d849a98e5147a416f63f0b7c664b861b234ef5f",
        "to": "0x31c86930c933e7ac0f9b84187b7cfe776335f678",
        "gas": "0x3a975",
        "value": "0x0",
        "input": "0x1b9621e000000000000000000000000000000000000000000000000000000000000000a000000000000000000000000000000000000000000000000000000000000000e00000000000000000000000000000000000000000000000000000000005f5e1000000000000000000000000000000000000000000000000000000000068971b8600000000000000000000000000000000000000000000000000000000001e8480000000000000000000000000000000000000000000000000000000000000000d546573742043616d706169676e00000000000000000000000000000000000000000000000000000000000000000000000000000000000000000000000000001754686973206973206120746573742063616d706169676e000000000000000000",
        "nonce": "0xb",
        "chainId": "0x14a34"
      },
      "additionalContracts": [],
      "isFixedGasLimit": false
    }
  ],
  "receipts": [
    {
      "status": "0x1",
      "cumulativeGasUsed": "0xc7ef12",
      "logs": [
        {
          "address": "0x31c86930c933e7ac0f9b84187b7cfe776335f678",
          "topics": [
            "0x610ef80c06b13af92a2fea0c71e3a5eb643a09c80a8fda0a0139e256d2db3e02",
            "0x0000000000000000000000000000000000000000000000000000000000000004",
            "0x0000000000000000000000003d849a98e5147a416f63f0b7c664b861b234ef5f"
          ],
          "data": "0x000000000000000000000000000000000000000000000000000000000000008000000000000000000000000000000000000000000000000000000000000000c00000000000000000000000000000000000000000000000000000000005f5e1000000000000000000000000000000000000000000000000000000000068971b86000000000000000000000000000000000000000000000000000000000000000d546573742043616d706169676e00000000000000000000000000000000000000000000000000000000000000000000000000000000000000000000000000001754686973206973206120746573742063616d706169676e000000000000000000",
          "blockHash": "0x70ee7a745698eb763fb601ddb728688c5aeea3e41cddd5741a146e2056e8aeff",
          "blockNumber": "0x1ae17d7",
          "blockTimestamp": "0x686f8e8e",
          "transactionHash": "0x32b2773751a1e61ad028b0b9eab8b8dc3c3410616b90e18dd0c3972d2e280aa2",
          "transactionIndex": "0x27",
          "logIndex": "0x229",
          "removed": false
        }
      ],
      "logsBloom": "0x00000000000000000000000000000010000000000000000000000000000000000000000008000000040000800000000000000000000000000000000000000000000000000000000000000000000000000000000000000000000000000000000008000000000000000000000000000000000000000000000000800000000000000000000000000000000000000000000000000002000000000000000000000000000000000000000000000000000000000000408000000000002000000000000000000000000000000000000000000000000000008000000000000000000000000000000000000000800000000000000000000000000000000000000000000000",
      "type": "0x2",
      "transactionHash": "0x32b2773751a1e61ad028b0b9eab8b8dc3c3410616b90e18dd0c3972d2e280aa2",
      "transactionIndex": "0x27",
      "blockHash": "0x70ee7a745698eb763fb601ddb728688c5aeea3e41cddd5741a146e2056e8aeff",
      "blockNumber": "0x1ae17d7",
      "gasUsed": "0x2a6b4",
      "effectiveGasPrice": "0xf438c",
      "from": "0x3d849a98e5147a416f63f0b7c664b861b234ef5f",
      "to": "0x31c86930c933e7ac0f9b84187b7cfe776335f678",
      "contractAddress": null,
      "l1BaseFeeScalar": "0x44d",
      "l1BlobBaseFee": "0xb",
      "l1BlobBaseFeeScalar": "0xa118b",
      "l1Fee": "0x1b6942",
      "l1GasPrice": "0xbfce3",
      "l1GasUsed": "0x81b"
    }
  ],
  "libraries": [],
  "pending": [],
  "returns": {},
  "timestamp": 1752141453,
  "chain": 84532,
  "commit": "ba2180c"
}