{
  "transactions": [
    {
      "hash": "0x0ac6ae6f341fb857cebe9e06e5a365138b05738aa085b7ab6c0dcf36295bcf01",
      "transactionType": "CALL",
      "contractName": null,
      "contractAddress": "0x51c26bac48842712a70ce252bbb1e15eb5ca6f24",
      "function": "createCampaign(string,string,uint256,uint64,uint256)",
      "arguments": [
        "Test Campaign",
        "This is a test campaign",
        "100000000",
        "1752142932",
        "2000000"
      ],
      "transaction": {
        "from": "0x3d849a98e5147a416f63f0b7c664b861b234ef5f",
        "to": "0x51c26bac48842712a70ce252bbb1e15eb5ca6f24",
        "gas": "0x442ac",
        "value": "0x0",
        "input": "0x1b9621e000000000000000000000000000000000000000000000000000000000000000a000000000000000000000000000000000000000000000000000000000000000e00000000000000000000000000000000000000000000000000000000005f5e10000000000000000000000000000000000000000000000000000000000686f945400000000000000000000000000000000000000000000000000000000001e8480000000000000000000000000000000000000000000000000000000000000000d546573742043616d706169676e00000000000000000000000000000000000000000000000000000000000000000000000000000000000000000000000000001754686973206973206120746573742063616d706169676e000000000000000000",
        "nonce": "0x1d",
        "chainId": "0x14a34"
      },
      "additionalContracts": [],
      "isFixedGasLimit": false
    }
  ],
  "receipts": [
    {
      "status": "0x1",
      "cumulativeGasUsed": "0x8047e3",
      "logs": [
        {
          "address": "0x51c26bac48842712a70ce252bbb1e15eb5ca6f24",
          "topics": [
            "0x610ef80c06b13af92a2fea0c71e3a5eb643a09c80a8fda0a0139e256d2db3e02",
            "0x0000000000000000000000000000000000000000000000000000000000000001",
            "0x0000000000000000000000003d849a98e5147a416f63f0b7c664b861b234ef5f"
          ],
          "data": "0x000000000000000000000000000000000000000000000000000000000000008000000000000000000000000000000000000000000000000000000000000000c00000000000000000000000000000000000000000000000000000000005f5e10000000000000000000000000000000000000000000000000000000000686f9454000000000000000000000000000000000000000000000000000000000000000d546573742043616d706169676e00000000000000000000000000000000000000000000000000000000000000000000000000000000000000000000000000001754686973206973206120746573742063616d706169676e000000000000000000",
          "blockHash": "0xa7d368574f9b4981cb9d62ba9f589d2abcac8d1a9d5da7bb6cb2ff08d1117b20",
          "blockNumber": "0x1ae1a82",
          "blockTimestamp": "0x686f93e4",
          "transactionHash": "0x0ac6ae6f341fb857cebe9e06e5a365138b05738aa085b7ab6c0dcf36295bcf01",
          "transactionIndex": "0x1a",
          "logIndex": "0x104",
          "removed": false
        }
      ],
      "logsBloom": "0x00000000000000000000000000000010000000000000000000000000000000000000000008000000040000000000000000000000000000000000000000040000000000000000000000000000000000000000000010040000000000000000000000000000000000000000000000000000000000000000000000800000000000000000000000000000000000000000000000000000000000000000000000000000000000000400000000000000000000000000408000000000000000000000000000000000000020000000000000000000000000000000000000000000000040000000000000000000000000000000000000000000000000000000000000000000",
      "type": "0x2",
      "transactionHash": "0x0ac6ae6f341fb857cebe9e06e5a365138b05738aa085b7ab6c0dcf36295bcf01",
      "transactionIndex": "0x1a",
      "blockHash": "0xa7d368574f9b4981cb9d62ba9f589d2abcac8d1a9d5da7bb6cb2ff08d1117b20",
      "blockNumber": "0x1ae1a82",
      "gasUsed": "0x2e9c3",
      "effectiveGasPrice": "0xf4368",
      "from": "0x3d849a98e5147a416f63f0b7c664b861b234ef5f",
      "to": "0x51c26bac48842712a70ce252bbb1e15eb5ca6f24",
      "contractAddress": null,
      "l1BaseFeeScalar": "0x44d",
      "l1BlobBaseFee": "0x5",
      "l1BlobBaseFeeScalar": "0xa118b",
      "l1Fee": "0x18e32b",
      "l1GasPrice": "0xae30f",
      "l1GasUsed": "0x81b"
    }
  ],
  "libraries": [],
  "pending": [],
  "returns": {},
  "timestamp": 1752142819,
  "chain": 84532,
  "commit": "ba2180c"
}