{
  "transactions": [
    {
      "hash": "0x2af3bb24f88851fc0f1e311846afdff9cd9a0755458887f14bde4493f01021f0",
      "transactionType": "CALL",
      "contractName": null,
      "contractAddress": "0x4d2df3bcabf854d0243526ebc5a70a7e09a5cfa6",
      "function": "createCampaign(string,string,uint256,uint64,uint256)",
      "arguments": [
        "Test Campaign",
        "This is a test campaign",
        "100000000",
        "1752142076",
        "2000000"
      ],
      "transaction": {
        "from": "0x3d849a98e5147a416f63f0b7c664b861b234ef5f",
        "to": "0x4d2df3bcabf854d0243526ebc5a70a7e09a5cfa6",
        "gas": "0x442ac",
        "value": "0x0",
        "input": "0x1b9621e000000000000000000000000000000000000000000000000000000000000000a000000000000000000000000000000000000000000000000000000000000000e00000000000000000000000000000000000000000000000000000000005f5e10000000000000000000000000000000000000000000000000000000000686f90fc00000000000000000000000000000000000000000000000000000000001e8480000000000000000000000000000000000000000000000000000000000000000d546573742043616d706169676e00000000000000000000000000000000000000000000000000000000000000000000000000000000000000000000000000001754686973206973206120746573742063616d706169676e000000000000000000",
        "nonce": "0x13",
        "chainId": "0x14a34"
      },
      "additionalContracts": [],
      "isFixedGasLimit": false
    }
  ],
  "receipts": [
    {
      "status": "0x1",
      "cumulativeGasUsed": "0x67a582",
      "logs": [
        {
          "address": "0x4d2df3bcabf854d0243526ebc5a70a7e09a5cfa6",
          "topics": [
            "0x610ef80c06b13af92a2fea0c71e3a5eb643a09c80a8fda0a0139e256d2db3e02",
            "0x0000000000000000000000000000000000000000000000000000000000000001",
            "0x0000000000000000000000003d849a98e5147a416f63f0b7c664b861b234ef5f"
          ],
          "data": "0x000000000000000000000000000000000000000000000000000000000000008000000000000000000000000000000000000000000000000000000000000000c00000000000000000000000000000000000000000000000000000000005f5e10000000000000000000000000000000000000000000000000000000000686f90fc000000000000000000000000000000000000000000000000000000000000000d546573742043616d706169676e00000000000000000000000000000000000000000000000000000000000000000000000000000000000000000000000000001754686973206973206120746573742063616d706169676e000000000000000000",
          "blockHash": "0xb84427b19387c71b76807b8eb8dbd1145d36286ac8d3dc47c2052dff97ae5215",
          "blockNumber": "0x1ae18d8",
          "blockTimestamp": "0x686f9090",
          "transactionHash": "0x2af3bb24f88851fc0f1e311846afdff9cd9a0755458887f14bde4493f01021f0",
          "transactionIndex": "0x15",
          "logIndex": "0xbf",
          "removed": false
        }
      ],
      "logsBloom": "0x00000000000000000000000000000010000000000800000000000000000000000000000008000000040000000000000000000000000000000000000000040000000000000000000000000000400000000000000000040000000000000000000000000000000000000000000000000000000000000000000000800000000000000000000000000000000000000000000000000000000000000000000000000000000800000000000000000000000000000000408000000000000000000000000000000000000000000000000000000000000000000000000000000000000040000000000000000000000000000000000000000000000000000000000000000000",
      "type": "0x2",
      "transactionHash": "0x2af3bb24f88851fc0f1e311846afdff9cd9a0755458887f14bde4493f01021f0",
      "transactionIndex": "0x15",
      "blockHash": "0xb84427b19387c71b76807b8eb8dbd1145d36286ac8d3dc47c2052dff97ae5215",
      "blockNumber": "0x1ae18d8",
      "gasUsed": "0x2e9c3",
      "effectiveGasPrice": "0xf437a",
      "from": "0x3d849a98e5147a416f63f0b7c664b861b234ef5f",
      "to": "0x4d2df3bcabf854d0243526ebc5a70a7e09a5cfa6",
      "contractAddress": null,
      "l1BaseFeeScalar": "0x44d",
      "l1BlobBaseFee": "0x8",
      "l1BlobBaseFeeScalar": "0xa118b",
      "l1Fee": "0x15c0ec",
      "l1GasPrice": "0x98396",
      "l1GasUsed": "0x81b"
    }
  ],
  "libraries": [],
  "pending": [],
  "returns": {},
  "timestamp": 1752141967,
  "chain": 84532,
  "commit": "ba2180c"
}