{
  "transactions": [
    {
      "hash": "0x69924d572db4b033ff3fd9d69dee15066feab8668314427834d2d337d32c33c8",
      "transactionType": "CALL",
      "contractName": null,
      "contractAddress": "0x0f484032c3849b0f91eb0e55b936e71190d7c44e",
      "function": "createCampaign(string,string,uint256,uint64,uint256)",
      "arguments": [
        "Test Campaign",
        "This is a test campaign",
        "100000000",
        "1752143688",
        "2000000"
      ],
      "transaction": {
        "from": "0x3d849a98e5147a416f63f0b7c664b861b234ef5f",
        "to": "0x0f484032c3849b0f91eb0e55b936e71190d7c44e",
        "gas": "0x3a9d1",
        "value": "0x0",
        "input": "0x1b9621e000000000000000000000000000000000000000000000000000000000000000a000000000000000000000000000000000000000000000000000000000000000e00000000000000000000000000000000000000000000000000000000005f5e10000000000000000000000000000000000000000000000000000000000686f974800000000000000000000000000000000000000000000000000000000001e8480000000000000000000000000000000000000000000000000000000000000000d546573742043616d706169676e00000000000000000000000000000000000000000000000000000000000000000000000000000000000000000000000000001754686973206973206120746573742063616d706169676e000000000000000000",
        "nonce": "0x28",
        "chainId": "0x14a34"
      },
      "additionalContracts": [],
      "isFixedGasLimit": false
    }
  ],
  "receipts": [
    {
      "status": "0x1",
      "cumulativeGasUsed": "0x7d0ba",
      "logs": [
        {
          "address": "0x0f484032c3849b0f91eb0e55b936e71190d7c44e",
          "topics": [
            "0x610ef80c06b13af92a2fea0c71e3a5eb643a09c80a8fda0a0139e256d2db3e02",
            "0x0000000000000000000000000000000000000000000000000000000000000004",
            "0x0000000000000000000000003d849a98e5147a416f63f0b7c664b861b234ef5f"
          ],
          "data": "0x000000000000000000000000000000000000000000000000000000000000008000000000000000000000000000000000000000000000000000000000000000c00000000000000000000000000000000000000000000000000000000005f5e10000000000000000000000000000000000000000000000000000000000686f9748000000000000000000000000000000000000000000000000000000000000000d546573742043616d706169676e00000000000000000000000000000000000000000000000000000000000000000000000000000000000000000000000000001754686973206973206120746573742063616d706169676e000000000000000000",
          "blockHash": "0x799f88f94eb6a7a70e5e86fc3f4597f5c9a9888d519cfbc0994788ac9d1b6f7c",
          "blockNumber": "0x1ae1bfd",
          "blockTimestamp": "0x686f96da",
          "transactionHash": "0x69924d572db4b033ff3fd9d69dee15066feab8668314427834d2d337d32c33c8",
          "transactionIndex": "0x5",
          "logIndex": "0x9",
          "removed": false
        }
      ],
      "logsBloom": "0x00000000000000000000000000000010000000000000000000000004000000000000000008000000040000000000000000000004000000000000000000000000000000000000000000000000000000000000000000000000000000000000000008000000000000000000000000000000000000000000000000800000000000000000000000000000000000000000000000000000000000000000000000000000000000000000000000000000000000004000408000000000002000000000000000000000000000000000000000000000000000008000000000000000000000000000000000000000000000000000000000000000000000000000000000000000",
      "type": "0x2",
      "transactionHash": "0x69924d572db4b033ff3fd9d69dee15066feab8668314427834d2d337d32c33c8",
      "transactionIndex": "0x5",
      "blockHash": "0x799f88f94eb6a7a70e5e86fc3f4597f5c9a9888d519cfbc0994788ac9d1b6f7c",
      "blockNumber": "0x1ae1bfd",
      "gasUsed": "0x2a6f7",
      "effectiveGasPrice": "0xf4346",
      "from": "0x3d849a98e5147a416f63f0b7c664b861b234ef5f",
      "to": "0x0f484032c3849b0f91eb0e55b936e71190d7c44e",
      "contractAddress": null,
      "l1BaseFeeScalar": "0x44d",
      "l1BlobBaseFee": "0x8",
      "l1BlobBaseFeeScalar": "0xa118b",
      "l1Fee": "0x14f4bf",
      "l1GasPrice": "0x92a3f",
      "l1GasUsed": "0x81b"
    }
  ],
  "libraries": [],
  "pending": [],
  "returns": {},
  "timestamp": 1752143576,
  "chain": 84532,
  "commit": "d1a6b11"
}