{
  "transactions": [
    {
      "hash": "0xc0fc93e20c7574e096642c5088b117d92a66356d6835aac02862aae20f9fe848",
      "transactionType": "CALL",
      "contractName": null,
      "contractAddress": "0xf7456fafdc3af14b6c6a9860b266a93e15e1a704",
      "function": "createCampaign(string,string,uint256,uint64,uint256)",
      "arguments": [
        "Test Campaign",
        "This is a test campaign",
        "100000000",
        "1752143972",
        "2000000"
      ],
      "transaction": {
        "from": "0x3d849a98e5147a416f63f0b7c664b861b234ef5f",
        "to": "0xf7456fafdc3af14b6c6a9860b266a93e15e1a704",
        "gas": "0x442ac",
        "value": "0x0",
        "input": "0x1b9621e000000000000000000000000000000000000000000000000000000000000000a000000000000000000000000000000000000000000000000000000000000000e00000000000000000000000000000000000000000000000000000000005f5e10000000000000000000000000000000000000000000000000000000000686f986400000000000000000000000000000000000000000000000000000000001e8480000000000000000000000000000000000000000000000000000000000000000d546573742043616d706169676e00000000000000000000000000000000000000000000000000000000000000000000000000000000000000000000000000001754686973206973206120746573742063616d706169676e000000000000000000",
        "nonce": "0x2e",
        "chainId": "0x14a34"
      },
      "additionalContracts": [],
      "isFixedGasLimit": false
    }
  ],
  "receipts": [
    {
      "status": "0x1",
      "cumulativeGasUsed": "0x5cf1c7",
      "logs": [
        {
          "address": "0xf7456fafdc3af14b6c6a9860b266a93e15e1a704",
          "topics": [
            "0x610ef80c06b13af92a2fea0c71e3a5eb643a09c80a8fda0a0139e256d2db3e02",
            "0x0000000000000000000000000000000000000000000000000000000000000001",
            "0x0000000000000000000000003d849a98e5147a416f63f0b7c664b861b234ef5f"
          ],
          "data": "0x000000000000000000000000000000000000000000000000000000000000008000000000000000000000000000000000000000000000000000000000000000c00000000000000000000000000000000000000000000000000000000005f5e10000000000000000000000000000000000000000000000000000000000686f9864000000000000000000000000000000000000000000000000000000000000000d546573742043616d706169676e00000000000000000000000000000000000000000000000000000000000000000000000000000000000000000000000000001754686973206973206120746573742063616d706169676e000000000000000000",
          "blockHash": "0xea7738a625365c5b79485ce652a607723e11e9561f9f76a4b01a894491ffa3ff",
          "blockNumber": "0x1ae1c8a",
          "transactionHash": "0xc0fc93e20c7574e096642c5088b117d92a66356d6835aac02862aae20f9fe848",
          "transactionIndex": "0x17",
          "logIndex": "0xf3",
          "removed": false
        }
      ],
      "logsBloom": "0x00000000000000000000000000000010000000000000000000000000000000000000000008000000040000000000000000000000000000000000000000040000000000000000001000000000000000000000000000040000000000000000000000000000000000000000000000000000000000000000000000800000000000000000000000000000000000000000000000000000000000000000000000000000000000000000000000000000000000000000408000000000000000000000000000000000000000000000000000000000000000000000000000000000000040000000000000000000000000000000020000000000800000000000000000000000",
      "type": "0x2",
      "transactionHash": "0xc0fc93e20c7574e096642c5088b117d92a66356d6835aac02862aae20f9fe848",
      "transactionIndex": "0x17",
      "blockHash": "0xea7738a625365c5b79485ce652a607723e11e9561f9f76a4b01a894491ffa3ff",
      "blockNumber": "0x1ae1c8a",
      "gasUsed": "0x2e9c3",
      "effectiveGasPrice": "0xf42b5",
      "from": "0x3d849a98e5147a416f63f0b7c664b861b234ef5f",
      "to": "0xf7456fafdc3af14b6c6a9860b266a93e15e1a704",
      "contractAddress": null,
      "l1BaseFeeScalar": "0x44d",
      "l1BlobBaseFee": "0x7",
      "l1BlobBaseFeeScalar": "0xa118b",
      "l1Fee": "0x20fb33",
      "l1GasPrice": "0xe6d69",
      "l1GasUsed": "0x81b"
    }
  ],
  "libraries": [],
  "pending": [],
  "returns": {},
  "timestamp": 1752143861,
  "chain": 84532,
  "commit": "d1a6b11"
}