{
  "transactions": [
    {
      "hash": "0xa3230a8910370570b2ab9ca8e2c0e684ffb45ef2ef6928967efc40654d8d56b1",
      "transactionType": "CALL",
      "contractName": null,
      "contractAddress": "0x4d2df3bcabf854d0243526ebc5a70a7e09a5cfa6",
      "function": "withdraw(uint256)",
      "arguments": [
        "2"
      ],
      "transaction": {
        "from": "0x3d849a98e5147a416f63f0b7c664b861b234ef5f",
        "to": "0x4d2df3bcabf854d0243526ebc5a70a7e09a5cfa6",
        "gas": "0x1f27f",
        "value": "0x0",
        "input": "0x2e1a7d4d0000000000000000000000000000000000000000000000000000000000000002",
        "nonce": "0x17",
        "chainId": "0x14a34"
      },
      "additionalContracts": [],
      "isFixedGasLimit": false
    }
  ],
  "receipts": [
    {
      "status": "0x1",
      "cumulativeGasUsed": "0x2c74e0",
      "logs": [
        {
          "address": "0x036cbd53842c5426634e7929541ec2318f3dcf7e",
          "topics": [
            "0xddf252ad1be2c89b69c2b068fc378daa952ba7f163c4a11628f55a4df523b3ef",
            "0x0000000000000000000000004d2df3bcabf854d0243526ebc5a70a7e09a5cfa6",
            "0x0000000000000000000000003d849a98e5147a416f63f0b7c664b861b234ef5f"
          ],
          "data": "0x00000000000000000000000000000000000000000000000000000000000f4240",
          "blockHash": "0xe7186601f653d495bf06aa31e96730a246685820b46e111cf6c02f52685a3265",
          "blockNumber": "0x1ae1989",
          "blockTimestamp": "0x686f91f2",
          "transactionHash": "0xa3230a8910370570b2ab9ca8e2c0e684ffb45ef2ef6928967efc40654d8d56b1",
          "transactionIndex": "0x11",
          "logIndex": "0x55",
          "removed": false
        },
        {
          "address": "0x4d2df3bcabf854d0243526ebc5a70a7e09a5cfa6",
          "topics": [
            "0x9da6493a92039daf47d1f2d7a782299c5994c6323eb1e972f69c432089ec52bf",
            "0x0000000000000000000000000000000000000000000000000000000000000002",
            "0x0000000000000000000000003d849a98e5147a416f63f0b7c664b861b234ef5f"
          ],
          "data": "0x00000000000000000000000000000000000000000000000000000000000f4240",
          "blockHash": "0xe7186601f653d495bf06aa31e96730a246685820b46e111cf6c02f52685a3265",
          "blockNumber": "0x1ae1989",
          "blockTimestamp": "0x686f91f2",
          "transactionHash": "0xa3230a8910370570b2ab9ca8e2c0e684ffb45ef2ef6928967efc40654d8d56b1",
          "transactionIndex": "0x11",
          "logIndex": "0x56",
          "removed": false
        }
      ],
      "logsBloom": "0x04000000040000000000000000000000000000000800000000000000000000000000000008000000040000000000000000000000000000000000000400000000000000000000040000200008400000000000000000000000000000000000000800000000000000000000100000000000000000000000000000800010000000000000000000000000010000000000000000000000000000000000000000000000000800000000008000000100000000000000000000000000000000000000000000000002000000000000000000000000000000000000000000000000000000000000000000000000000000000020000000000000008000000000000000000000",
      "type": "0x2",
      "transactionHash": "0xa3230a8910370570b2ab9ca8e2c0e684ffb45ef2ef6928967efc40654d8d56b1",
      "transactionIndex": "0x11",
      "blockHash": "0xe7186601f653d495bf06aa31e96730a246685820b46e111cf6c02f52685a3265",
      "blockNumber": "0x1ae1989",
      "gasUsed": "0x154db",
      "effectiveGasPrice": "0xf4354",
      "from": "0x3d849a98e5147a416f63f0b7c664b861b234ef5f",
      "to": "0x4d2df3bcabf854d0243526ebc5a70a7e09a5cfa6",
      "contractAddress": null,
      "l1BaseFeeScalar": "0x44d",
      "l1BlobBaseFee": "0x9",
      "l1BlobBaseFeeScalar": "0xa118b",
      "l1Fee": "0x128387",
      "l1GasPrice": "0xa8127",
      "l1GasUsed": "0x640"
    }
  ],
  "libraries": [],
  "pending": [],
  "returns": {},
  "timestamp": 1752142321,
  "chain": 84532,
  "commit": "ba2180c"
}