{
  "transactions": [
    {
      "hash": "0x68db52cd792736146461ebc94e933b4f231903971bfa76ea3fc2687b30a13fef",
      "transactionType": "CALL",
      "contractName": null,
      "contractAddress": "0x036cbd53842c5426634e7929541ec2318f3dcf7e",
      "function": "approve(address,uint256)",
      "arguments": [
        "0x31C86930C933E7Ac0f9b84187B7cFE776335F678",
        "3000000"
      ],
      "transaction": {
        "from": "0x3d849a98e5147a416f63f0b7c664b861b234ef5f",
        "to": "0x036cbd53842c5426634e7929541ec2318f3dcf7e",
        "gas": "0x12b1b",
        "value": "0x0",
        "input": "0x095ea7b300000000000000000000000031c86930c933e7ac0f9b84187b7cfe776335f67800000000000000000000000000000000000000000000000000000000002dc6c0",
        "nonce": "0x2",
        "chainId": "0x14a34"
      },
      "additionalContracts": [],
      "isFixedGasLimit": false
    },
    {
      "hash": "0xf9dd445df330ed16c152bfbb0d205d767687cd28da3ee8f72583100f6e4eaec9",
      "transactionType": "CALL",
      "contractName": null,
      "contractAddress": "0x31c86930c933e7ac0f9b84187b7cfe776335f678",
      "function": "contribute(uint256,uint256)",
      "arguments": [
        "1",
        "3000000"
      ],
      "transaction": {
        "from": "0x3d849a98e5147a416f63f0b7c664b861b234ef5f",
        "to": "0x31c86930c933e7ac0f9b84187b7cfe776335f678",
        "gas": "0x41e61",
        "value": "0x0",
        "input": "0x8c590917000000000000000000000000000000000000000000000000000000000000000100000000000000000000000000000000000000000000000000000000002dc6c0",
        "nonce": "0x3",
        "chainId": "0x14a34"
      },
      "additionalContracts": [],
      "isFixedGasLimit": false
    }
  ],
  "receipts": [
    {
      "status": "0x1",
      "cumulativeGasUsed": "0x84f535",
      "logs": [
        {
          "address": "0x036cbd53842c5426634e7929541ec2318f3dcf7e",
          "topics": [
            "0x8c5be1e5ebec7d5bd14f71427d1e84f3dd0314c0f7b2291e5b200ac8c7c3b925",
            "0x0000000000000000000000003d849a98e5147a416f63f0b7c664b861b234ef5f",
            "0x00000000000000000000000031c86930c933e7ac0f9b84187b7cfe776335f678"
          ],
          "data": "0x00000000000000000000000000000000000000000000000000000000002dc6c0",
          "blockHash": "0xcae4d6dc66d0e251f288f487e2e4c29c1e11d2cc748fb4f42ea8664ac4822e38",
          "blockNumber": "0x1ad952c",
          "blockTimestamp": "0x686e8938",
          "transactionHash": "0x68db52cd792736146461ebc94e933b4f231903971bfa76ea3fc2687b30a13fef",
          "transactionIndex": "0x20",
          "logIndex": "0x12c",
          "removed": false
        }
      ],
      "logsBloom": "0x00000000040000000000000400000000000000000001000000000000000000000000000008000000040000000000000000000000000000000000000000200000000000000000000000000000000000000000000000000000000000000000000800000000000000000000000000000000000000000000000000800000000000000000000000000000000000000000040000000000000000000000000000000000020000000000000000000000000000000000000000000000000000000000000000000000000000000000000000000000000000000000000000000000000000000010000000000000000000000020000000000000000000000000000000000000",
      "type": "0x2",
      "transactionHash": "0x68db52cd792736146461ebc94e933b4f231903971bfa76ea3fc2687b30a13fef",
      "transactionIndex": "0x20",
      "blockHash": "0xcae4d6dc66d0e251f288f487e2e4c29c1e11d2cc748fb4f42ea8664ac4822e38",
      "blockNumber": "0x1ad952c",
      "gasUsed": "0xd88d",
      "effectiveGasPrice": "0x117f37",
      "from": "0x3d849a98e5147a416f63f0b7c664b861b234ef5f",
      "to": "0x036cbd53842c5426634e7929541ec2318f3dcf7e",
      "contractAddress": null,
      "l1BaseFeeScalar": "0x44d",
      "l1BlobBaseFee": "0x37772752",
      "l1BlobBaseFeeScalar": "0xa118b",
      "l1Fee": "0xe4d9e879f",
      "l1GasPrice": "0xfae2b0",
      "l1GasUsed": "0x640"
    },
    {
      "status": "0x1",
      "cumulativeGasUsed": "0x87c627",
      "logs": [
        {
          "address": "0x036cbd53842c5426634e7929541ec2318f3dcf7e",
          "topics": [
            "0xddf252ad1be2c89b69c2b068fc378daa952ba7f163c4a11628f55a4df523b3ef",
            "0x0000000000000000000000003d849a98e5147a416f63f0b7c664b861b234ef5f",
            "0x00000000000000000000000031c86930c933e7ac0f9b84187b7cfe776335f678"
          ],
          "data": "0x00000000000000000000000000000000000000000000000000000000002dc6c0",
          "blockHash": "0x1448b06d0c0d1ea8c9712ea617f1f8f3456a20cad076742c118b07d76eb0ecff",
          "blockNumber": "0x1ad952c",
          "transactionHash": "0xf9dd445df330ed16c152bfbb0d205d767687cd28da3ee8f72583100f6e4eaec9",
          "transactionIndex": "0x21",
          "logIndex": "0x12d",
          "removed": false
        },
        {
          "address": "0x31c86930c933e7ac0f9b84187b7cfe776335f678",
          "topics": [
            "0xddf252ad1be2c89b69c2b068fc378daa952ba7f163c4a11628f55a4df523b3ef",
            "0x0000000000000000000000000000000000000000000000000000000000000000",
            "0x0000000000000000000000003d849a98e5147a416f63f0b7c664b861b234ef5f",
            "0x0000000000000000000000000000000000000000000000000000000000000000"
          ],
          "data": "0x",
          "blockHash": "0x1448b06d0c0d1ea8c9712ea617f1f8f3456a20cad076742c118b07d76eb0ecff",
          "blockNumber": "0x1ad952c",
          "transactionHash": "0xf9dd445df330ed16c152bfbb0d205d767687cd28da3ee8f72583100f6e4eaec9",
          "transactionIndex": "0x21",
          "logIndex": "0x12e",
          "removed": false
        },
        {
          "address": "0x31c86930c933e7ac0f9b84187b7cfe776335f678",
          "topics": [
            "0xb2ed2e021651f85a4754a44651fc09ac5141bc0329ce4dfe8dd712a5d04a8b39",
            "0x0000000000000000000000000000000000000000000000000000000000000001",
            "0x0000000000000000000000003d849a98e5147a416f63f0b7c664b861b234ef5f"
          ],
          "data": "0x00000000000000000000000000000000000000000000000000000000002dc6c0",
          "blockHash": "0x1448b06d0c0d1ea8c9712ea617f1f8f3456a20cad076742c118b07d76eb0ecff",
          "blockNumber": "0x1ad952c",
          "transactionHash": "0xf9dd445df330ed16c152bfbb0d205d767687cd28da3ee8f72583100f6e4eaec9",
          "transactionIndex": "0x21",
          "logIndex": "0x12f",
          "removed": false
        }
      ],
      "logsBloom": "0x00000000040000000000008400000000000000000001000000000000000000000000000008000000040000800000000000000000000000000000000000040000000000000000000000000008000000000000000000040000000000000000000800000000020000000000000000000800000000000000000000800010000000000000000000000000000008000000040000000002000000000000000000000000000000000000000000000000000000000000000000000000000000000000000000000002000000000000000000000000000000000000000000000000000060000000000000000000800000000020000000000000000000000000000800000000",
      "type": "0x2",
      "transactionHash": "0xf9dd445df330ed16c152bfbb0d205d767687cd28da3ee8f72583100f6e4eaec9",
      "transactionIndex": "0x21",
      "blockHash": "0x1448b06d0c0d1ea8c9712ea617f1f8f3456a20cad076742c118b07d76eb0ecff",
      "blockNumber": "0x1ad952c",
      "gasUsed": "0x2d0f2",
      "effectiveGasPrice": "0x117ef7",
      "from": "0x3d849a98e5147a416f63f0b7c664b861b234ef5f",
      "to": "0x31c86930c933e7ac0f9b84187b7cfe776335f678",
      "contractAddress": null,
      "l1BaseFeeScalar": "0x44d",
      "l1BlobBaseFee": "0x37772752",
      "l1BlobBaseFeeScalar": "0xa118b",
      "l1Fee": "0xe4d9e879f",
      "l1GasPrice": "0xfae2b0",
      "l1GasUsed": "0x640"
    }
  ],
  "libraries": [],
  "pending": [],
  "returns": {},
  "timestamp": 1752074552,
  "chain": 84532,
  "commit": "9909f9a"
}