{
  "transactions": [
    {
      "hash": "0xd864f7eb272f8aa92bd61ff905249861d7ccc7714e631123861afbcd3ad8ce14",
      "transactionType": "CALL",
      "contractName": null,
      "contractAddress": "0x036cbd53842c5426634e7929541ec2318f3dcf7e",
      "function": "approve(address,uint256)",
      "arguments": [
        "0x0f484032C3849B0f91Eb0e55b936E71190d7c44e",
        "3000000"
      ],
      "transaction": {
        "from": "0x3d849a98e5147a416f63f0b7c664b861b234ef5f",
        "to": "0x036cbd53842c5426634e7929541ec2318f3dcf7e",
        "gas": "0xdb03",
        "value": "0x0",
        "input": "0x095ea7b30000000000000000000000000f484032c3849b0f91eb0e55b936e71190d7c44e00000000000000000000000000000000000000000000000000000000002dc6c0",
        "nonce": "0x29",
        "chainId": "0x14a34"
      },
      "additionalContracts": [],
      "isFixedGasLimit": false
    },
    {
      "hash": "0xdb3fdf027ba4b3495573260a9ec8cd285e0bc683be5e4a1c48684675f99f7438",
      "transactionType": "CALL",
      "contractName": null,
      "contractAddress": "0x0f484032c3849b0f91eb0e55b936e71190d7c44e",
      "function": "contribute(uint256,uint256)",
      "arguments": [
        "4",
        "200000"
      ],
      "transaction": {
        "from": "0x3d849a98e5147a416f63f0b7c664b861b234ef5f",
        "to": "0x0f484032c3849b0f91eb0e55b936e71190d7c44e",
        "gas": "0x298da",
        "value": "0x0",
        "input": "0x8c59091700000000000000000000000000000000000000000000000000000000000000040000000000000000000000000000000000000000000000000000000000030d40",
        "nonce": "0x2a",
        "chainId": "0x14a34"
      },
      "additionalContracts": [],
      "isFixedGasLimit": false
    }
  ],
  "receipts": [
    {
      "status": "0x1",
      "cumulativeGasUsed": "0x2552b0",
      "logs": [
        {
          "address": "0x036cbd53842c5426634e7929541ec2318f3dcf7e",
          "topics": [
            "0x8c5be1e5ebec7d5bd14f71427d1e84f3dd0314c0f7b2291e5b200ac8c7c3b925",
            "0x0000000000000000000000003d849a98e5147a416f63f0b7c664b861b234ef5f",
            "0x0000000000000000000000000f484032c3849b0f91eb0e55b936e71190d7c44e"
          ],
          "data": "0x00000000000000000000000000000000000000000000000000000000002dc6c0",
          "blockHash": "0xed2e1f94940c306f9ed950679b62b0176e4b87a3d7457598dd7b47df4591d53c",
          "blockNumber": "0x1ae1c0a",
          "transactionHash": "0xd864f7eb272f8aa92bd61ff905249861d7ccc7714e631123861afbcd3ad8ce14",
          "transactionIndex": "0xb",
          "logIndex": "0x60",
          "removed": false
        }
      ],
      "logsBloom": "0x00000000040000000000000000000000000000000000000000000000000000000000000008000000040000000000000000000000000000000000000000200000000000000000080000000000000000000040000000000000000000000000000800000000000000000000000000000000000000200000000000800000000000000000000000000000000000000000000000000000000000000000000000000000020000000000000000000000000000000000000000000000000000000000000000000000000000000000000000000000000000000000000000000000000000000010000000000000000000000020000000000000000000000000000000000000",
      "type": "0x2",
      "transactionHash": "0xd864f7eb272f8aa92bd61ff905249861d7ccc7714e631123861afbcd3ad8ce14",
      "transactionIndex": "0xb",
      "blockHash": "0xed2e1f94940c306f9ed950679b62b0176e4b87a3d7457598dd7b47df4591d53c",
      "blockNumber": "0x1ae1c0a",
      "gasUsed": "0x95c1",
      "effectiveGasPrice": "0xf42bf",
      "from": "0x3d849a98e5147a416f63f0b7c664b861b234ef5f",
      "to": "0x036cbd53842c5426634e7929541ec2318f3dcf7e",
      "contractAddress": null,
      "l1BaseFeeScalar": "0x44d",
      "l1BlobBaseFee": "0x9",
      "l1BlobBaseFeeScalar": "0xa118b",
      "l1Fee": "0x10e994",
      "l1GasPrice": "0x99870",
      "l1GasUsed": "0x640"
    },
    {
      "status": "0x1",
      "cumulativeGasUsed": "0x30d503",
      "logs": [
        {
          "address": "0x036cbd53842c5426634e7929541ec2318f3dcf7e",
          "topics": [
            "0xddf252ad1be2c89b69c2b068fc378daa952ba7f163c4a11628f55a4df523b3ef",
            "0x0000000000000000000000003d849a98e5147a416f63f0b7c664b861b234ef5f",
            "0x0000000000000000000000000f484032c3849b0f91eb0e55b936e71190d7c44e"
          ],
          "data": "0x0000000000000000000000000000000000000000000000000000000000030d40",
          "blockHash": "0xed2e1f94940c306f9ed950679b62b0176e4b87a3d7457598dd7b47df4591d53c",
          "blockNumber": "0x1ae1c0a",
          "transactionHash": "0xdb3fdf027ba4b3495573260a9ec8cd285e0bc683be5e4a1c48684675f99f7438",
          "transactionIndex": "0x11",
          "logIndex": "0x78",
          "removed": false
        },
        {
          "address": "0x0f484032c3849b0f91eb0e55b936e71190d7c44e",
          "topics": [
            "0xb2ed2e021651f85a4754a44651fc09ac5141bc0329ce4dfe8dd712a5d04a8b39",
            "0x0000000000000000000000000000000000000000000000000000000000000004",
            "0x0000000000000000000000003d849a98e5147a416f63f0b7c664b861b234ef5f"
          ],
          "data": "0x0000000000000000000000000000000000000000000000000000000000030d40",
          "blockHash": "0xed2e1f94940c306f9ed950679b62b0176e4b87a3d7457598dd7b47df4591d53c",
          "blockNumber": "0x1ae1c0a",
          "transactionHash": "0xdb3fdf027ba4b3495573260a9ec8cd285e0bc683be5e4a1c48684675f99f7438",
          "transactionIndex": "0x11",
          "logIndex": "0x79",
          "removed": false
        }
      ],
      "logsBloom": "0x00000000040000000000008000000000000000000000000000000004000000000000000008000000040000000000000000000004000000000000000000000000000000000000080000000008000000000040000000000000000000000000000808000000000000000000000000000000000000200000000000800010000000000000000000000000000008000000000000000000000000000000000000000000000000000000000000000000000000004000000000000000002000000000000000000002000000000000000000000000000000008000000000000000000000000000000000000000000000000020000000000000000000000000000800000000",
      "type": "0x2",
      "transactionHash": "0xdb3fdf027ba4b3495573260a9ec8cd285e0bc683be5e4a1c48684675f99f7438",
      "transactionIndex": "0x11",
      "blockHash": "0xed2e1f94940c306f9ed950679b62b0176e4b87a3d7457598dd7b47df4591d53c",
      "blockNumber": "0x1ae1c0a",
      "gasUsed": "0x1e158",
      "effectiveGasPrice": "0xf42bf",
      "from": "0x3d849a98e5147a416f63f0b7c664b861b234ef5f",
      "to": "0x0f484032c3849b0f91eb0e55b936e71190d7c44e",
      "contractAddress": null,
      "l1BaseFeeScalar": "0x44d",
      "l1BlobBaseFee": "0x9",
      "l1BlobBaseFeeScalar": "0xa118b",
      "l1Fee": "0x10e994",
      "l1GasPrice": "0x99870",
      "l1GasUsed": "0x640"
    }
  ],
  "libraries": [],
  "pending": [],
  "returns": {},
  "timestamp": 1752143604,
  "chain": 84532,
  "commit": "d1a6b11"
}