{
  "transactions": [
    {
      "hash": "0xe66c415fb43c874efc1003bba3814395a1e427aada5588e06cdd4c30cb686612",
      "transactionType": "CALL",
      "contractName": null,
      "contractAddress": "0x036cbd53842c5426634e7929541ec2318f3dcf7e",
      "function": "approve(address,uint256)",
      "arguments": [
        "0xF7456FAfDc3af14b6C6a9860b266a93e15E1A704",
        "3000000"
      ],
      "transaction": {
        "from": "0x3d849a98e5147a416f63f0b7c664b861b234ef5f",
        "to": "0x036cbd53842c5426634e7929541ec2318f3dcf7e",
        "gas": "0x12b1b",
        "value": "0x0",
        "input": "0x095ea7b3000000000000000000000000f7456fafdc3af14b6c6a9860b266a93e15e1a70400000000000000000000000000000000000000000000000000000000002dc6c0",
        "nonce": "0x2f",
        "chainId": "0x14a34"
      },
      "additionalContracts": [],
      "isFixedGasLimit": false
    },
    {
      "hash": "0xc852766da488bd08a5b8d0091fb91b752bcf7f09a1970c3ff0c375da30252fd6",
      "transactionType": "CALL",
      "contractName": null,
      "contractAddress": "0xf7456fafdc3af14b6c6a9860b266a93e15e1a704",
      "function": "contribute(uint256,uint256)",
      "arguments": [
        "1",
        "200000"
      ],
      "transaction": {
        "from": "0x3d849a98e5147a416f63f0b7c664b861b234ef5f",
        "to": "0xf7456fafdc3af14b6c6a9860b266a93e15e1a704",
        "gas": "0x2f51e",
        "value": "0x0",
        "input": "0x8c59091700000000000000000000000000000000000000000000000000000000000000010000000000000000000000000000000000000000000000000000000000030d40",
        "nonce": "0x30",
        "chainId": "0x14a34"
      },
      "additionalContracts": [],
      "isFixedGasLimit": false
    }
  ],
  "receipts": [
    {
      "status": "0x1",
      "cumulativeGasUsed": "0x658e99",
      "logs": [
        {
          "address": "0x036cbd53842c5426634e7929541ec2318f3dcf7e",
          "topics": [
            "0x8c5be1e5ebec7d5bd14f71427d1e84f3dd0314c0f7b2291e5b200ac8c7c3b925",
            "0x0000000000000000000000003d849a98e5147a416f63f0b7c664b861b234ef5f",
            "0x000000000000000000000000f7456fafdc3af14b6c6a9860b266a93e15e1a704"
          ],
          "data": "0x00000000000000000000000000000000000000000000000000000000002dc6c0",
          "blockHash": "0x3005b054d091b4f3616af1d6db61d2c8e40558ed66946262bb0a50b476935d92",
          "blockNumber": "0x1ae1ca2",
          "blockTimestamp": "0x686f9824",
          "transactionHash": "0xe66c415fb43c874efc1003bba3814395a1e427aada5588e06cdd4c30cb686612",
          "transactionIndex": "0x15",
          "logIndex": "0xee",
          "removed": false
        }
      ],
      "logsBloom": "0x00000000040000000000000000000000000000000000000000000000000000000000000008000000040000000000000000000000000000000000000008200000000000000000000000000000000000000000000000000000000000000000000800000000000000000000000000000000000000000000000000800000000000000000000000000000000000000010000000000000000000000000000000000000020000040000000000000000000000000000000000000000000000000000000000000000000000000000000000000000000000000000000000000000000000000010000000000000000000000020000000000000000000000000000000000000",
      "type": "0x2",
      "transactionHash": "0xe66c415fb43c874efc1003bba3814395a1e427aada5588e06cdd4c30cb686612",
      "transactionIndex": "0x15",
      "blockHash": "0x3005b054d091b4f3616af1d6db61d2c8e40558ed66946262bb0a50b476935d92",
      "blockNumber": "0x1ae1ca2",
      "gasUsed": "0xd88d",
      "effectiveGasPrice": "0xf4328",
      "from": "0x3d849a98e5147a416f63f0b7c664b861b234ef5f",
      "to": "0x036cbd53842c5426634e7929541ec2318f3dcf7e",
      "contractAddress": null,
      "l1BaseFeeScalar": "0x44d",
      "l1BlobBaseFee": "0x8",
      "l1BlobBaseFeeScalar": "0xa118b",
      "l1Fee": "0x19917f",
      "l1GasPrice": "0xe827c",
      "l1GasUsed": "0x640"
    },
    {
      "status": "0x1",
      "cumulativeGasUsed": "0x81323a",
      "logs": [
        {
          "address": "0x036cbd53842c5426634e7929541ec2318f3dcf7e",
          "topics": [
            "0xddf252ad1be2c89b69c2b068fc378daa952ba7f163c4a11628f55a4df523b3ef",
            "0x0000000000000000000000003d849a98e5147a416f63f0b7c664b861b234ef5f",
            "0x000000000000000000000000f7456fafdc3af14b6c6a9860b266a93e15e1a704"
          ],
          "data": "0x0000000000000000000000000000000000000000000000000000000000030d40",
          "blockHash": "0x68a249c7d933600027f109cb6d11b1ba59f4c05b3c31ba8724d8a6061c564c01",
          "blockNumber": "0x1ae1ca2",
          "transactionHash": "0xc852766da488bd08a5b8d0091fb91b752bcf7f09a1970c3ff0c375da30252fd6",
          "transactionIndex": "0x1c",
          "logIndex": "0x148",
          "removed": false
        },
        {
          "address": "0xf7456fafdc3af14b6c6a9860b266a93e15e1a704",
          "topics": [
            "0xb2ed2e021651f85a4754a44651fc09ac5141bc0329ce4dfe8dd712a5d04a8b39",
            "0x0000000000000000000000000000000000000000000000000000000000000001",
            "0x0000000000000000000000003d849a98e5147a416f63f0b7c664b861b234ef5f"
          ],
          "data": "0x0000000000000000000000000000000000000000000000000000000000030d40",
          "blockHash": "0x68a249c7d933600027f109cb6d11b1ba59f4c05b3c31ba8724d8a6061c564c01",
          "blockNumber": "0x1ae1ca2",
          "transactionHash": "0xc852766da488bd08a5b8d0091fb91b752bcf7f09a1970c3ff0c375da30252fd6",
          "transactionIndex": "0x1c",
          "logIndex": "0x149",
          "removed": false
        }
      ],
      "logsBloom": "0x00000000040000000000008000000000000000000000000000000000000000000000000008000000040000000000000000000000000000000000000008040000000000000000001000000008000000000000000000040000000000000000000800000000000000000000000000000000000000000000000000800010000000000000000000000000000008000010000000000000000000000000000000000000000000040000000000000000000000000000000000000000000000000000000000000002000000000000000000000000000000000000000000000000000040000000000000000000000000000020020000000000800000000000000800000000",
      "type": "0x2",
      "transactionHash": "0xc852766da488bd08a5b8d0091fb91b752bcf7f09a1970c3ff0c375da30252fd6",
      "transactionIndex": "0x1c",
      "blockHash": "0x68a249c7d933600027f109cb6d11b1ba59f4c05b3c31ba8724d8a6061c564c01",
      "blockNumber": "0x1ae1ca2",
      "gasUsed": "0x22424",
      "effectiveGasPrice": "0xf42b3",
      "from": "0x3d849a98e5147a416f63f0b7c664b861b234ef5f",
      "to": "0xf7456fafdc3af14b6c6a9860b266a93e15e1a704",
      "contractAddress": null,
      "l1BaseFeeScalar": "0x44d",
      "l1BlobBaseFee": "0x8",
      "l1BlobBaseFeeScalar": "0xa118b",
      "l1Fee": "0x19917f",
      "l1GasPrice": "0xe827c",
      "l1GasUsed": "0x640"
    }
  ],
  "libraries": [],
  "pending": [],
  "returns": {},
  "timestamp": 1752143909,
  "chain": 84532,
  "commit": "d1a6b11"
}