{
  "transactions": [
    {
      "hash": "0xc9b07a502f8eb81bcff22653fe1bec9d83b982a751254562c0492675e9922255",
      "transactionType": "CALL",
      "contractName": null,
      "contractAddress": "0x036cbd53842c5426634e7929541ec2318f3dcf7e",
      "function": "approve(address,uint256)",
      "arguments": [
        "0x4D2dF3bCAbf854D0243526EBC5a70A7E09a5cfA6",
        "3000000"
      ],
      "transaction": {
        "from": "0x3d849a98e5147a416f63f0b7c664b861b234ef5f",
        "to": "0x036cbd53842c5426634e7929541ec2318f3dcf7e",
        "gas": "0x12b1b",
        "value": "0x0",
        "input": "0x095ea7b30000000000000000000000004d2df3bcabf854d0243526ebc5a70a7e09a5cfa600000000000000000000000000000000000000000000000000000000002dc6c0",
        "nonce": "0x15",
        "chainId": "0x14a34"
      },
      "additionalContracts": [],
      "isFixedGasLimit": false
    },
    {
      "hash": "0x2c7bd90b9574b71c5c178bebbc46dbeeff0430466bbccc1e178bdc8476952d31",
      "transactionType": "CALL",
      "contractName": null,
      "contractAddress": "0x4d2df3bcabf854d0243526ebc5a70a7e09a5cfa6",
      "function": "contribute(uint256,uint256)",
      "arguments": [
        "2",
        "1000000"
      ],
      "transaction": {
        "from": "0x3d849a98e5147a416f63f0b7c664b861b234ef5f",
        "to": "0x4d2df3bcabf854d0243526ebc5a70a7e09a5cfa6",
        "gas": "0x2f51e",
        "value": "0x0",
        "input": "0x8c590917000000000000000000000000000000000000000000000000000000000000000200000000000000000000000000000000000000000000000000000000000f4240",
        "nonce": "0x16",
        "chainId": "0x14a34"
      },
      "additionalContracts": [],
      "isFixedGasLimit": false
    }
  ],
  "receipts": [
    {
      "status": "0x1",
      "cumulativeGasUsed": "0x6c2627",
      "logs": [
        {
          "address": "0x036cbd53842c5426634e7929541ec2318f3dcf7e",
          "topics": [
            "0x8c5be1e5ebec7d5bd14f71427d1e84f3dd0314c0f7b2291e5b200ac8c7c3b925",
            "0x0000000000000000000000003d849a98e5147a416f63f0b7c664b861b234ef5f",
            "0x0000000000000000000000004d2df3bcabf854d0243526ebc5a70a7e09a5cfa6"
          ],
          "data": "0x00000000000000000000000000000000000000000000000000000000002dc6c0",
          "blockHash": "0xa74b2c80bba15c3300359fdded3fc7fe0dae3e8ee5be0981a3b94776de4f66e6",
          "blockNumber": "0x1ae1967",
          "transactionHash": "0xc9b07a502f8eb81bcff22653fe1bec9d83b982a751254562c0492675e9922255",
          "transactionIndex": "0x19",
          "logIndex": "0x105",
          "removed": false
        }
      ],
      "logsBloom": "0x00000000040000000000000000000000000000000000000000000000000000000000000008000000040000000000000000000000000000000000000000200000000000000000000000200000000000000000000000000000000000000000000800000000000000000000000000000000000000000000000000800000000000000000000000000000010000000000000000000000000000000000000000000000020000000000008000000000000000000000000000000000000000000000000000000000000000000000000000000000000000000000000000000000000000000010000000000000000000000020000000000000000000000000000000000000",
      "type": "0x2",
      "transactionHash": "0xc9b07a502f8eb81bcff22653fe1bec9d83b982a751254562c0492675e9922255",
      "transactionIndex": "0x19",
      "blockHash": "0xa74b2c80bba15c3300359fdded3fc7fe0dae3e8ee5be0981a3b94776de4f66e6",
      "blockNumber": "0x1ae1967",
      "gasUsed": "0xd88d",
      "effectiveGasPrice": "0xf42ca",
      "from": "0x3d849a98e5147a416f63f0b7c664b861b234ef5f",
      "to": "0x036cbd53842c5426634e7929541ec2318f3dcf7e",
      "contractAddress": null,
      "l1BaseFeeScalar": "0x44d",
      "l1BlobBaseFee": "0xa",
      "l1BlobBaseFeeScalar": "0xa118b",
      "l1Fee": "0x151cb0",
      "l1GasPrice": "0xbfa98",
      "l1GasUsed": "0x640"
    },
    {
      "status": "0x1",
      "cumulativeGasUsed": "0x6e4a4b",
      "logs": [
        {
          "address": "0x036cbd53842c5426634e7929541ec2318f3dcf7e",
          "topics": [
            "0xddf252ad1be2c89b69c2b068fc378daa952ba7f163c4a11628f55a4df523b3ef",
            "0x0000000000000000000000003d849a98e5147a416f63f0b7c664b861b234ef5f",
            "0x0000000000000000000000004d2df3bcabf854d0243526ebc5a70a7e09a5cfa6"
          ],
          "data": "0x00000000000000000000000000000000000000000000000000000000000f4240",
          "blockHash": "0xa74b2c80bba15c3300359fdded3fc7fe0dae3e8ee5be0981a3b94776de4f66e6",
          "blockNumber": "0x1ae1967",
          "transactionHash": "0x2c7bd90b9574b71c5c178bebbc46dbeeff0430466bbccc1e178bdc8476952d31",
          "transactionIndex": "0x1a",
          "logIndex": "0x106",
          "removed": false
        },
        {
          "address": "0x4d2df3bcabf854d0243526ebc5a70a7e09a5cfa6",
          "topics": [
            "0xb2ed2e021651f85a4754a44651fc09ac5141bc0329ce4dfe8dd712a5d04a8b39",
            "0x0000000000000000000000000000000000000000000000000000000000000002",
            "0x0000000000000000000000003d849a98e5147a416f63f0b7c664b861b234ef5f"
          ],
          "data": "0x00000000000000000000000000000000000000000000000000000000000f4240",
          "blockHash": "0xa74b2c80bba15c3300359fdded3fc7fe0dae3e8ee5be0981a3b94776de4f66e6",
          "blockNumber": "0x1ae1967",
          "transactionHash": "0x2c7bd90b9574b71c5c178bebbc46dbeeff0430466bbccc1e178bdc8476952d31",
          "transactionIndex": "0x1a",
          "logIndex": "0x107",
          "removed": false
        }
      ],
      "logsBloom": "0x04000000040000000000008000000000000000000800000000000000000000000000000008000000040000000000000000000000000000000000000000000000000000000000000000200008400000000000000000000000000000000000000800000000000000000000000000000000000000000000000000800010000000000000000000000000010008000000000000000000000000000000000000000000000800000000008000000100000000000000000000000000000000000000000000000002000000000000000000000000000000000000000000000000000000000000000000000000000000000020000000000000008000000000000800000000",
      "type": "0x2",
      "transactionHash": "0x2c7bd90b9574b71c5c178bebbc46dbeeff0430466bbccc1e178bdc8476952d31",
      "transactionIndex": "0x1a",
      "blockHash": "0xa74b2c80bba15c3300359fdded3fc7fe0dae3e8ee5be0981a3b94776de4f66e6",
      "blockNumber": "0x1ae1967",
      "gasUsed": "0x22424",
      "effectiveGasPrice": "0xf42ca",
      "from": "0x3d849a98e5147a416f63f0b7c664b861b234ef5f",
      "to": "0x4d2df3bcabf854d0243526ebc5a70a7e09a5cfa6",
      "contractAddress": null,
      "l1BaseFeeScalar": "0x44d",
      "l1BlobBaseFee": "0xa",
      "l1BlobBaseFeeScalar": "0xa118b",
      "l1Fee": "0x151cb0",
      "l1GasPrice": "0xbfa98",
      "l1GasUsed": "0x640"
    }
  ],
  "libraries": [],
  "pending": [],
  "returns": {},
  "timestamp": 1752142255,
  "chain": 84532,
  "commit": "ba2180c"
}