{
  "transactions": [
    {
      "hash": "0x37b17204bc8f7d6b086f4e1f6bee9fc84ed160331068bad9e4ed3b1aa1f36b96",
      "transactionType": "CALL",
      "contractName": null,
      "contractAddress": "0x036cbd53842c5426634e7929541ec2318f3dcf7e",
      "function": "approve(address,uint256)",
      "arguments": [
        "0x24B413AF0731FB6a49dCC906EA88B81437059D10",
        "3000000"
      ],
      "transaction": {
        "from": "0x3d849a98e5147a416f63f0b7c664b861b234ef5f",
        "to": "0x036cbd53842c5426634e7929541ec2318f3dcf7e",
        "gas": "0x12b1b",
        "value": "0x0",
        "input": "0x095ea7b300000000000000000000000024b413af0731fb6a49dcc906ea88b81437059d1000000000000000000000000000000000000000000000000000000000002dc6c0",
        "nonce": "0x35",
        "chainId": "0x14a34"
      },
      "additionalContracts": [],
      "isFixedGasLimit": false
    },
    {
      "hash": "0x6bcabd14e985123dc7bcdd0153f966738be721c9d4fa96a22ad4d38e3ea0466b",
      "transactionType": "CALL",
      "contractName": null,
      "contractAddress": "0x24b413af0731fb6a49dcc906ea88b81437059d10",
      "function": "contribute(uint256,uint256)",
      "arguments": [
        "1",
        "200000"
      ],
      "transaction": {
        "from": "0x3d849a98e5147a416f63f0b7c664b861b234ef5f",
        "to": "0x24b413af0731fb6a49dcc906ea88b81437059d10",
        "gas": "0x2f51e",
        "value": "0x0",
        "input": "0x8c59091700000000000000000000000000000000000000000000000000000000000000010000000000000000000000000000000000000000000000000000000000030d40",
        "nonce": "0x36",
        "chainId": "0x14a34"
      },
      "additionalContracts": [],
      "isFixedGasLimit": false
    }
  ],
  "receipts": [
    {
      "status": "0x1",
      "cumulativeGasUsed": "0x44c363",
      "logs": [
        {
          "address": "0x036cbd53842c5426634e7929541ec2318f3dcf7e",
          "topics": [
            "0x8c5be1e5ebec7d5bd14f71427d1e84f3dd0314c0f7b2291e5b200ac8c7c3b925",
            "0x0000000000000000000000003d849a98e5147a416f63f0b7c664b861b234ef5f",
            "0x00000000000000000000000024b413af0731fb6a49dcc906ea88b81437059d10"
          ],
          "data": "0x00000000000000000000000000000000000000000000000000000000002dc6c0",
          "blockHash": "0x347288daecb5e7e48305628a622c251dc2bb4aec38151d38d856eda02a904289",
          "blockNumber": "0x1ae1d13",
          "blockTimestamp": "0x686f9906",
          "transactionHash": "0x37b17204bc8f7d6b086f4e1f6bee9fc84ed160331068bad9e4ed3b1aa1f36b96",
          "transactionIndex": "0x19",
          "logIndex": "0xb3",
          "removed": false
        }
      ],
      "logsBloom": "0x00000000040000000000000000000000000000000000000000800000000000000000000008000000040000000000000000000000000000000000000000200000000000000000000000000000000000000000000000800000000000000000000800000000000000000000000000000000000000000000000000800000000000000000000000000000000000000000000000000000000000000000000000000000020000000000000000000000000000000000000000000000000000000000000000000000000000000000000000000000000002000000000000000000000000000010000000000000000000000020000000000000000000000000000000000000",
      "type": "0x2",
      "transactionHash": "0x37b17204bc8f7d6b086f4e1f6bee9fc84ed160331068bad9e4ed3b1aa1f36b96",
      "transactionIndex": "0x19",
      "blockHash": "0x347288daecb5e7e48305628a622c251dc2bb4aec38151d38d856eda02a904289",
      "blockNumber": "0x1ae1d13",
      "gasUsed": "0xd88d",
      "effectiveGasPrice": "0xf432c",
      "from": "0x3d849a98e5147a416f63f0b7c664b861b234ef5f",
      "to": "0x036cbd53842c5426634e7929541ec2318f3dcf7e",
      "contractAddress": null,
      "l1BaseFeeScalar": "0x44d",
      "l1BlobBaseFee": "0x7",
      "l1BlobBaseFeeScalar": "0xa118b",
      "l1Fee": "0x176a3c",
      "l1GasPrice": "0xd49b3",
      "l1GasUsed": "0x640"
    },
    {
      "status": "0x1",
      "cumulativeGasUsed": "0x46e787",
      "logs": [
        {
          "address": "0x036cbd53842c5426634e7929541ec2318f3dcf7e",
          "topics": [
            "0xddf252ad1be2c89b69c2b068fc378daa952ba7f163c4a11628f55a4df523b3ef",
            "0x0000000000000000000000003d849a98e5147a416f63f0b7c664b861b234ef5f",
            "0x00000000000000000000000024b413af0731fb6a49dcc906ea88b81437059d10"
          ],
          "data": "0x0000000000000000000000000000000000000000000000000000000000030d40",
          "blockHash": "0x347288daecb5e7e48305628a622c251dc2bb4aec38151d38d856eda02a904289",
          "blockNumber": "0x1ae1d13",
          "blockTimestamp": "0x686f9906",
          "transactionHash": "0x6bcabd14e985123dc7bcdd0153f966738be721c9d4fa96a22ad4d38e3ea0466b",
          "transactionIndex": "0x1a",
          "logIndex": "0xb4",
          "removed": false
        },
        {
          "address": "0x24b413af0731fb6a49dcc906ea88b81437059d10",
          "topics": [
            "0xb2ed2e021651f85a4754a44651fc09ac5141bc0329ce4dfe8dd712a5d04a8b39",
            "0x0000000000000000000000000000000000000000000000000000000000000001",
            "0x0000000000000000000000003d849a98e5147a416f63f0b7c664b861b234ef5f"
          ],
          "data": "0x0000000000000000000000000000000000000000000000000000000000030d40",
          "blockHash": "0x347288daecb5e7e48305628a622c251dc2bb4aec38151d38d856eda02a904289",
          "blockNumber": "0x1ae1d13",
          "blockTimestamp": "0x686f9906",
          "transactionHash": "0x6bcabd14e985123dc7bcdd0153f966738be721c9d4fa96a22ad4d38e3ea0466b",
          "transactionIndex": "0x1a",
          "logIndex": "0xb5",
          "removed": false
        }
      ],
      "logsBloom": "0x00000000040000000000008000000000000000000000000000800000000000000000000008000000040000000000000000000000000000000010000000040000000000000000000000000008000000000000000000840000000000000000000800000000000000000000000000000000000000000000000000800010000000000000000000000000000008000000000000000000000000000000000000000001000000000000020000000000000000000000000000000000000000000000000000000002000000000000000000000000000002000000000000000000000040000000000000000000000000000020000000000000000000000000000800000000",
      "type": "0x2",
      "transactionHash": "0x6bcabd14e985123dc7bcdd0153f966738be721c9d4fa96a22ad4d38e3ea0466b",
      "transactionIndex": "0x1a",
      "blockHash": "0x347288daecb5e7e48305628a622c251dc2bb4aec38151d38d856eda02a904289",
      "blockNumber": "0x1ae1d13",
      "gasUsed": "0x22424",
      "effectiveGasPrice": "0xf432c",
      "from": "0x3d849a98e5147a416f63f0b7c664b861b234ef5f",
      "to": "0x24b413af0731fb6a49dcc906ea88b81437059d10",
      "contractAddress": null,
      "l1BaseFeeScalar": "0x44d",
      "l1BlobBaseFee": "0x7",
      "l1BlobBaseFeeScalar": "0xa118b",
      "l1Fee": "0x176a3c",
      "l1GasPrice": "0xd49b3",
      "l1GasUsed": "0x640"
    }
  ],
  "libraries": [],
  "pending": [],
  "returns": {},
  "timestamp": 1752144133,
  "chain": 84532,
  "commit": "d1a6b11"
}