{
  "transactions": [
    {
      "hash": "0x9e56c9fae533b23dc9efdb465e7956e82db1313861f61912de2cb3d7e35018b2",
      "transactionType": "CALL",
      "contractName": null,
      "contractAddress": "0x036cbd53842c5426634e7929541ec2318f3dcf7e",
      "function": "approve(address,uint256)",
      "arguments": [
        "0x0f484032C3849B0f91Eb0e55b936E71190d7c44e",
        "3000000"
      ],
      "transaction": {
        "from": "0x3d849a98e5147a416f63f0b7c664b861b234ef5f",
        "to": "0x036cbd53842c5426634e7929541ec2318f3dcf7e",
        "gas": "0x12b1b",
        "value": "0x0",
        "input": "0x095ea7b30000000000000000000000000f484032c3849b0f91eb0e55b936e71190d7c44e00000000000000000000000000000000000000000000000000000000002dc6c0",
        "nonce": "0x24",
        "chainId": "0x14a34"
      },
      "additionalContracts": [],
      "isFixedGasLimit": false
    },
    {
      "hash": "0x6772279f14bd1a48a51297129d47bc5ecc5c09c7729cd5cc77506f87d6faa63a",
      "transactionType": "CALL",
      "contractName": null,
      "contractAddress": "0x0f484032c3849b0f91eb0e55b936e71190d7c44e",
      "function": "contribute(uint256,uint256)",
      "arguments": [
        "2",
        "1000000"
      ],
      "transaction": {
        "from": "0x3d849a98e5147a416f63f0b7c664b861b234ef5f",
        "to": "0x0f484032c3849b0f91eb0e55b936e71190d7c44e",
        "gas": "0x2f51e",
        "value": "0x0",
        "input": "0x8c590917000000000000000000000000000000000000000000000000000000000000000200000000000000000000000000000000000000000000000000000000000f4240",
        "nonce": "0x25",
        "chainId": "0x14a34"
      },
      "additionalContracts": [],
      "isFixedGasLimit": false
    },
    {
      "hash": "0xa9d31fbd98efacb7b871ec9aaf0c7754eebaec26c64188b6306cf62b1a2b3f7b",
      "transactionType": "CALL",
      "contractName": null,
      "contractAddress": "0x036cbd53842c5426634e7929541ec2318f3dcf7e",
      "function": "approve(address,uint256)",
      "arguments": [
        "0x0f484032C3849B0f91Eb0e55b936E71190d7c44e",
        "3000000"
      ],
      "transaction": {
        "from": "0x3d849a98e5147a416f63f0b7c664b861b234ef5f",
        "to": "0x036cbd53842c5426634e7929541ec2318f3dcf7e",
        "gas": "0xdb03",
        "value": "0x0",
        "input": "0x095ea7b30000000000000000000000000f484032c3849b0f91eb0e55b936e71190d7c44e00000000000000000000000000000000000000000000000000000000002dc6c0",
        "nonce": "0x26",
        "chainId": "0x14a34"
      },
      "additionalContracts": [],
      "isFixedGasLimit": false
    },
    {
      "hash": "0x1dce874af25ca3900ae1a1d9a78da315d63066ac4fd5daedde04b5bafcd715ca",
      "transactionType": "CALL",
      "contractName": null,
      "contractAddress": "0x0f484032c3849b0f91eb0e55b936e71190d7c44e",
      "function": "contribute(uint256,uint256)",
      "arguments": [
        "3",
        "1000000"
      ],
      "transaction": {
        "from": "0x3d849a98e5147a416f63f0b7c664b861b234ef5f",
        "to": "0x0f484032c3849b0f91eb0e55b936e71190d7c44e",
        "gas": "0x298da",
        "value": "0x0",
        "input": "0x8c590917000000000000000000000000000000000000000000000000000000000000000300000000000000000000000000000000000000000000000000000000000f4240",
        "nonce": "0x27",
        "chainId": "0x14a34"
      },
      "additionalContracts": [],
      "isFixedGasLimit": false
    }
  ],
  "receipts": [
    {
      "status": "0x1",
      "cumulativeGasUsed": "0x972a83",
      "logs": [
        {
          "address": "0x036cbd53842c5426634e7929541ec2318f3dcf7e",
          "topics": [
            "0x8c5be1e5ebec7d5bd14f71427d1e84f3dd0314c0f7b2291e5b200ac8c7c3b925",
            "0x0000000000000000000000003d849a98e5147a416f63f0b7c664b861b234ef5f",
            "0x0000000000000000000000000f484032c3849b0f91eb0e55b936e71190d7c44e"
          ],
          "data": "0x00000000000000000000000000000000000000000000000000000000002dc6c0",
          "blockHash": "0xebf6b61df074aa89644fd15f5cbdf14a5598875ffd71bc9a350f62d74ba5b50f",
          "blockNumber": "0x1ae1b90",
          "blockTimestamp": "0x686f9600",
          "transactionHash": "0x9e56c9fae533b23dc9efdb465e7956e82db1313861f61912de2cb3d7e35018b2",
          "transactionIndex": "0x1d",
          "logIndex": "0x181",
          "removed": false
        }
      ],
      "logsBloom": "0x00000000040000000000000000000000000000000000000000000000000000000000000008000000040000000000000000000000000000000000000000200000000000000000080000000000000000000040000000000000000000000000000800000000000000000000000000000000000000200000000000800000000000000000000000000000000000000000000000000000000000000000000000000000020000000000000000000000000000000000000000000000000000000000000000000000000000000000000000000000000000000000000000000000000000000010000000000000000000000020000000000000000000000000000000000000",
      "type": "0x2",
      "transactionHash": "0x9e56c9fae533b23dc9efdb465e7956e82db1313861f61912de2cb3d7e35018b2",
      "transactionIndex": "0x1d",
      "blockHash": "0xebf6b61df074aa89644fd15f5cbdf14a5598875ffd71bc9a350f62d74ba5b50f",
      "blockNumber": "0x1ae1b90",
      "gasUsed": "0xd88d",
      "effectiveGasPrice": "0xf4380",
      "from": "0x3d849a98e5147a416f63f0b7c664b861b234ef5f",
      "to": "0x036cbd53842c5426634e7929541ec2318f3dcf7e",
      "contractAddress": null,
      "l1BaseFeeScalar": "0x44d",
      "l1BlobBaseFee": "0x8",
      "l1BlobBaseFeeScalar": "0xa118b",
      "l1Fee": "0xdf0fa",
      "l1GasPrice": "0x7e8d1",
      "l1GasUsed": "0x640"
    },
    {
      "status": "0x1",
      "cumulativeGasUsed": "0x994ea7",
      "logs": [
        {
          "address": "0x036cbd53842c5426634e7929541ec2318f3dcf7e",
          "topics": [
            "0xddf252ad1be2c89b69c2b068fc378daa952ba7f163c4a11628f55a4df523b3ef",
            "0x0000000000000000000000003d849a98e5147a416f63f0b7c664b861b234ef5f",
            "0x0000000000000000000000000f484032c3849b0f91eb0e55b936e71190d7c44e"
          ],
          "data": "0x00000000000000000000000000000000000000000000000000000000000f4240",
          "blockHash": "0xebf6b61df074aa89644fd15f5cbdf14a5598875ffd71bc9a350f62d74ba5b50f",
          "blockNumber": "0x1ae1b90",
          "blockTimestamp": "0x686f9600",
          "transactionHash": "0x6772279f14bd1a48a51297129d47bc5ecc5c09c7729cd5cc77506f87d6faa63a",
          "transactionIndex": "0x1e",
          "logIndex": "0x182",
          "removed": false
        },
        {
          "address": "0x0f484032c3849b0f91eb0e55b936e71190d7c44e",
          "topics": [
            "0xb2ed2e021651f85a4754a44651fc09ac5141bc0329ce4dfe8dd712a5d04a8b39",
            "0x0000000000000000000000000000000000000000000000000000000000000002",
            "0x0000000000000000000000003d849a98e5147a416f63f0b7c664b861b234ef5f"
          ],
          "data": "0x00000000000000000000000000000000000000000000000000000000000f4240",
          "blockHash": "0xebf6b61df074aa89644fd15f5cbdf14a5598875ffd71bc9a350f62d74ba5b50f",
          "blockNumber": "0x1ae1b90",
          "blockTimestamp": "0x686f9600",
          "transactionHash": "0x6772279f14bd1a48a51297129d47bc5ecc5c09c7729cd5cc77506f87d6faa63a",
          "transactionIndex": "0x1e",
          "logIndex": "0x183",
          "removed": false
        }
      ],
      "logsBloom": "0x04000000040000000000008000000000000000000000000000000004000000000000000008000000040000000000000000000004000000000000000000000000000000000000080000000008000000000040000000000000000000000000000800000000000000000000000000000000000000200000000000800010000000000000000000000000000008000000000000000000000000000000000000000000000000000000000000000100000000004000000000000000000000000000000000000002000000000000000000000000000000000000000000000000000000000000000000000000000000000020000000000000008000000000000800000000",
      "type": "0x2",
      "transactionHash": "0x6772279f14bd1a48a51297129d47bc5ecc5c09c7729cd5cc77506f87d6faa63a",
      "transactionIndex": "0x1e",
      "blockHash": "0xebf6b61df074aa89644fd15f5cbdf14a5598875ffd71bc9a350f62d74ba5b50f",
      "blockNumber": "0x1ae1b90",
      "gasUsed": "0x22424",
      "effectiveGasPrice": "0xf4380",
      "from": "0x3d849a98e5147a416f63f0b7c664b861b234ef5f",
      "to": "0x0f484032c3849b0f91eb0e55b936e71190d7c44e",
      "contractAddress": null,
      "l1BaseFeeScalar": "0x44d",
      "l1BlobBaseFee": "0x8",
      "l1BlobBaseFeeScalar": "0xa118b",
      "l1Fee": "0xdf0fa",
      "l1GasPrice": "0x7e8d1",
      "l1GasUsed": "0x640"
    },
    {
      "status": "0x1",
      "cumulativeGasUsed": "0x99e468",
      "logs": [
        {
          "address": "0x036cbd53842c5426634e7929541ec2318f3dcf7e",
          "topics": [
            "0x8c5be1e5ebec7d5bd14f71427d1e84f3dd0314c0f7b2291e5b200ac8c7c3b925",
            "0x0000000000000000000000003d849a98e5147a416f63f0b7c664b861b234ef5f",
            "0x0000000000000000000000000f484032c3849b0f91eb0e55b936e71190d7c44e"
          ],
          "data": "0x00000000000000000000000000000000000000000000000000000000002dc6c0",
          "blockHash": "0xebf6b61df074aa89644fd15f5cbdf14a5598875ffd71bc9a350f62d74ba5b50f",
          "blockNumber": "0x1ae1b90",
          "blockTimestamp": "0x686f9600",
          "transactionHash": "0xa9d31fbd98efacb7b871ec9aaf0c7754eebaec26c64188b6306cf62b1a2b3f7b",
          "transactionIndex": "0x1f",
          "logIndex": "0x184",
          "removed": false
        }
      ],
      "logsBloom": "0x00000000040000000000000000000000000000000000000000000000000000000000000008000000040000000000000000000000000000000000000000200000000000000000080000000000000000000040000000000000000000000000000800000000000000000000000000000000000000200000000000800000000000000000000000000000000000000000000000000000000000000000000000000000020000000000000000000000000000000000000000000000000000000000000000000000000000000000000000000000000000000000000000000000000000000010000000000000000000000020000000000000000000000000000000000000",
      "type": "0x2",
      "transactionHash": "0xa9d31fbd98efacb7b871ec9aaf0c7754eebaec26c64188b6306cf62b1a2b3f7b",
      "transactionIndex": "0x1f",
      "blockHash": "0xebf6b61df074aa89644fd15f5cbdf14a5598875ffd71bc9a350f62d74ba5b50f",
      "blockNumber": "0x1ae1b90",
      "gasUsed": "0x95c1",
      "effectiveGasPrice": "0xf4380",
      "from": "0x3d849a98e5147a416f63f0b7c664b861b234ef5f",
      "to": "0x036cbd53842c5426634e7929541ec2318f3dcf7e",
      "contractAddress": null,
      "l1BaseFeeScalar": "0x44d",
      "l1BlobBaseFee": "0x8",
      "l1BlobBaseFeeScalar": "0xa118b",
      "l1Fee": "0xdf0fa",
      "l1GasPrice": "0x7e8d1",
      "l1GasUsed": "0x640"
    },
    {
      "status": "0x1",
      "cumulativeGasUsed": "0x9bc5c0",
      "logs": [
        {
          "address": "0x036cbd53842c5426634e7929541ec2318f3dcf7e",
          "topics": [
            "0xddf252ad1be2c89b69c2b068fc378daa952ba7f163c4a11628f55a4df523b3ef",
            "0x0000000000000000000000003d849a98e5147a416f63f0b7c664b861b234ef5f",
            "0x0000000000000000000000000f484032c3849b0f91eb0e55b936e71190d7c44e"
          ],
          "data": "0x00000000000000000000000000000000000000000000000000000000000f4240",
          "blockHash": "0xebf6b61df074aa89644fd15f5cbdf14a5598875ffd71bc9a350f62d74ba5b50f",
          "blockNumber": "0x1ae1b90",
          "blockTimestamp": "0x686f9600",
          "transactionHash": "0x1dce874af25ca3900ae1a1d9a78da315d63066ac4fd5daedde04b5bafcd715ca",
          "transactionIndex": "0x20",
          "logIndex": "0x185",
          "removed": false
        },
        {
          "address": "0x0f484032c3849b0f91eb0e55b936e71190d7c44e",
          "topics": [
            "0xb2ed2e021651f85a4754a44651fc09ac5141bc0329ce4dfe8dd712a5d04a8b39",
            "0x0000000000000000000000000000000000000000000000000000000000000003",
            "0x0000000000000000000000003d849a98e5147a416f63f0b7c664b861b234ef5f"
          ],
          "data": "0x00000000000000000000000000000000000000000000000000000000000f4240",
          "blockHash": "0xebf6b61df074aa89644fd15f5cbdf14a5598875ffd71bc9a350f62d74ba5b50f",
          "blockNumber": "0x1ae1b90",
          "blockTimestamp": "0x686f9600",
          "transactionHash": "0x1dce874af25ca3900ae1a1d9a78da315d63066ac4fd5daedde04b5bafcd715ca",
          "transactionIndex": "0x20",
          "logIndex": "0x186",
          "removed": false
        }
      ],
      "logsBloom": "0x00000000040000000000008000000000000000000000000000000004000000000000000008000000040000000000000000000004020000000000000000000000000000000000080000000008000000000040000000000000000000000000000800000000000000000000000000000000000000200000000000800010000000000000000000000000000008000000000000000000000000000000000000000000000000000000000000000000000000004000000000800000000000000000400000000002000000000000000000000000000000000000000000000000000000000000000000000000000000000020000000000000000000000000000800000000",
      "type": "0x2",
      "transactionHash": "0x1dce874af25ca3900ae1a1d9a78da315d63066ac4fd5daedde04b5bafcd715ca",
      "transactionIndex": "0x20",
      "blockHash": "0xebf6b61df074aa89644fd15f5cbdf14a5598875ffd71bc9a350f62d74ba5b50f",
      "blockNumber": "0x1ae1b90",
      "gasUsed": "0x1e158",
      "effectiveGasPrice": "0xf4380",
      "from": "0x3d849a98e5147a416f63f0b7c664b861b234ef5f",
      "to": "0x0f484032c3849b0f91eb0e55b936e71190d7c44e",
      "contractAddress": null,
      "l1BaseFeeScalar": "0x44d",
      "l1BlobBaseFee": "0x8",
      "l1BlobBaseFeeScalar": "0xa118b",
      "l1Fee": "0xdf0fa",
      "l1GasPrice": "0x7e8d1",
      "l1GasUsed": "0x640"
    }
  ],
  "libraries": [],
  "pending": [],
  "returns": {},
  "timestamp": 1752143359,
  "chain": 84532,
  "commit": "d1a6b11"
}