{
  "transactions": [
    {
      "hash": "0x72f3905625de7082d4a18eed4cb3fee385f1de5b59588a52bfe91288ae0010ae",
      "transactionType": "CALL",
      "contractName": null,
      "contractAddress": "0x036cbd53842c5426634e7929541ec2318f3dcf7e",
      "function": "approve(address,uint256)",
      "arguments": [
        "0x3561553a2Fedad291972be27d35f85B7Be555C90",
        "3000000"
      ],
      "transaction": {
        "from": "0x3d849a98e5147a416f63f0b7c664b861b234ef5f",
        "to": "0x036cbd53842c5426634e7929541ec2318f3dcf7e",
        "gas": "0x12b1b",
        "value": "0x0",
        "input": "0x095ea7b30000000000000000000000003561553a2fedad291972be27d35f85b7be555c9000000000000000000000000000000000000000000000000000000000002dc6c0",
        "nonce": "0xd",
        "chainId": "0x14a34"
      },
      "additionalContracts": [],
      "isFixedGasLimit": false
    },
    {
      "hash": "0x5b5f0d22e0097380f0e22f985af2ab871dcfdf989cb2bdc1ad94f5623c1cb40e",
      "transactionType": "CALL",
      "contractName": null,
      "contractAddress": "0x3561553a2fedad291972be27d35f85b7be555c90",
      "function": "contribute(uint256,uint256)",
      "arguments": [
        "1",
        "1000000"
      ],
      "transaction": {
        "from": "0x3d849a98e5147a416f63f0b7c664b861b234ef5f",
        "to": "0x3561553a2fedad291972be27d35f85b7be555c90",
        "gas": "0x2f51e",
        "value": "0x0",
        "input": "0x8c590917000000000000000000000000000000000000000000000000000000000000000100000000000000000000000000000000000000000000000000000000000f4240",
        "nonce": "0xe",
        "chainId": "0x14a34"
      },
      "additionalContracts": [],
      "isFixedGasLimit": false
    }
  ],
  "receipts": [
    {
      "status": "0x1",
      "cumulativeGasUsed": "0x62631a",
      "logs": [
        {
          "address": "0x036cbd53842c5426634e7929541ec2318f3dcf7e",
          "topics": [
            "0x8c5be1e5ebec7d5bd14f71427d1e84f3dd0314c0f7b2291e5b200ac8c7c3b925",
            "0x0000000000000000000000003d849a98e5147a416f63f0b7c664b861b234ef5f",
            "0x0000000000000000000000003561553a2fedad291972be27d35f85b7be555c90"
          ],
          "data": "0x00000000000000000000000000000000000000000000000000000000002dc6c0",
          "blockHash": "0xa8767fa6a46e0a14fc77038f9ec139dfae4f09fe4a0d3b77cd7e3cdae924b4dd",
          "blockNumber": "0x1ae1827",
          "blockTimestamp": "0x686f8f2e",
          "transactionHash": "0x72f3905625de7082d4a18eed4cb3fee385f1de5b59588a52bfe91288ae0010ae",
          "transactionIndex": "0x13",
          "logIndex": "0xdd",
          "removed": false
        }
      ],
      "logsBloom": "0x00000000040000000000000002000000000000000000000000000000000000000000000008000000040000000000000000000000000000000000002000200000000000000000000000000000000000000000000000000000001000000000000800000000000000000000000000000000000000000000000000800000000000000000000000000000000000000000000000000000000000000000000000000000020000000000000000000000000000000000000000000000000000000000000000000000000000000000000000000000000000000000000000000000000000000010000000000000000000000020000000000000000000000000000000000000",
      "type": "0x2",
      "transactionHash": "0x72f3905625de7082d4a18eed4cb3fee385f1de5b59588a52bfe91288ae0010ae",
      "transactionIndex": "0x13",
      "blockHash": "0xa8767fa6a46e0a14fc77038f9ec139dfae4f09fe4a0d3b77cd7e3cdae924b4dd",
      "blockNumber": "0x1ae1827",
      "gasUsed": "0xd88d",
      "effectiveGasPrice": "0xf4392",
      "from": "0x3d849a98e5147a416f63f0b7c664b861b234ef5f",
      "to": "0x036cbd53842c5426634e7929541ec2318f3dcf7e",
      "contractAddress": null,
      "l1BaseFeeScalar": "0x44d",
      "l1BlobBaseFee": "0xc",
      "l1BlobBaseFeeScalar": "0xa118b",
      "l1Fee": "0x144112",
      "l1GasPrice": "0xb7da2",
      "l1GasUsed": "0x640"
    },
    {
      "status": "0x1",
      "cumulativeGasUsed": "0x64873e",
      "logs": [
        {
          "address": "0x036cbd53842c5426634e7929541ec2318f3dcf7e",
          "topics": [
            "0xddf252ad1be2c89b69c2b068fc378daa952ba7f163c4a11628f55a4df523b3ef",
            "0x0000000000000000000000003d849a98e5147a416f63f0b7c664b861b234ef5f",
            "0x0000000000000000000000003561553a2fedad291972be27d35f85b7be555c90"
          ],
          "data": "0x00000000000000000000000000000000000000000000000000000000000f4240",
          "blockHash": "0xa8767fa6a46e0a14fc77038f9ec139dfae4f09fe4a0d3b77cd7e3cdae924b4dd",
          "blockNumber": "0x1ae1827",
          "blockTimestamp": "0x686f8f2e",
          "transactionHash": "0x5b5f0d22e0097380f0e22f985af2ab871dcfdf989cb2bdc1ad94f5623c1cb40e",
          "transactionIndex": "0x14",
          "logIndex": "0xde",
          "removed": false
        },
        {
          "address": "0x3561553a2fedad291972be27d35f85b7be555c90",
          "topics": [
            "0xb2ed2e021651f85a4754a44651fc09ac5141bc0329ce4dfe8dd712a5d04a8b39",
            "0x0000000000000000000000000000000000000000000000000000000000000001",
            "0x0000000000000000000000003d849a98e5147a416f63f0b7c664b861b234ef5f"
          ],
          "data": "0x00000000000000000000000000000000000000000000000000000000000f4240",
          "blockHash": "0xa8767fa6a46e0a14fc77038f9ec139dfae4f09fe4a0d3b77cd7e3cdae924b4dd",
          "blockNumber": "0x1ae1827",
          "blockTimestamp": "0x686f8f2e",
          "transactionHash": "0x5b5f0d22e0097380f0e22f985af2ab871dcfdf989cb2bdc1ad94f5623c1cb40e",
          "transactionIndex": "0x14",
          "logIndex": "0xdf",
          "removed": false
        }
      ],
      "logsBloom": "0x00000000040000000000008002000000000000000000000000000000000000000000000008000000040000000000000000000000000000000000002000040000000000000000000000000008000000000000000000040000001000000000000800000000000000000000000000000000000000000000000000800010000000000000000000000000004008000000000000000000000000000000000000000000000000000000000000000000000000000200000000000000000000000000000008000002000000000000000000000000000000000000000000000000000040000000000000000000000000000020000000000000000000000000000800000000",
      "type": "0x2",
      "transactionHash": "0x5b5f0d22e0097380f0e22f985af2ab871dcfdf989cb2bdc1ad94f5623c1cb40e",
      "transactionIndex": "0x14",
      "blockHash": "0xa8767fa6a46e0a14fc77038f9ec139dfae4f09fe4a0d3b77cd7e3cdae924b4dd",
      "blockNumber": "0x1ae1827",
      "gasUsed": "0x22424",
      "effectiveGasPrice": "0xf4392",
      "from": "0x3d849a98e5147a416f63f0b7c664b861b234ef5f",
      "to": "0x3561553a2fedad291972be27d35f85b7be555c90",
      "contractAddress": null,
      "l1BaseFeeScalar": "0x44d",
      "l1BlobBaseFee": "0xc",
      "l1BlobBaseFeeScalar": "0xa118b",
      "l1Fee": "0x144112",
      "l1GasPrice": "0xb7da2",
      "l1GasUsed": "0x640"
    }
  ],
  "libraries": [],
  "pending": [],
  "returns": {},
  "timestamp": 1752141612,
  "chain": 84532,
  "commit": "ba2180c"
}