{
  "transactions": [
    {
      "hash": "0x65e54f86ba4098a779597ac3b53d550986611a8edfe054a3efb2eb07b7e7fc95",
      "transactionType": "CALL",
      "contractName": null,
      "contractAddress": "0x31c86930c933e7ac0f9b84187b7cfe776335f678",
      "function": "createCampaign(string,string,uint256,uint64,uint256)",
      "arguments": [
        "Test Campaign",
        "This is a test campaign",
        "100000000",
        "1754666192",
        "2000000"
      ],
      "transaction": {
        "from": "0x3d849a98e5147a416f63f0b7c664b861b234ef5f",
        "to": "0x31c86930c933e7ac0f9b84187b7cfe776335f678",
        "gas": "0x405b8",
        "value": "0x0",
        "input": "0x1b9621e000000000000000000000000000000000000000000000000000000000000000a000000000000000000000000000000000000000000000000000000000000000e00000000000000000000000000000000000000000000000000000000005f5e10000000000000000000000000000000000000000000000000000000000689614d000000000000000000000000000000000000000000000000000000000001e8480000000000000000000000000000000000000000000000000000000000000000d546573742043616d706169676e00000000000000000000000000000000000000000000000000000000000000000000000000000000000000000000000000001754686973206973206120746573742063616d706169676e000000000000000000",
        "nonce": "0x1",
        "chainId": "0x14a34"
      },
      "additionalContracts": [],
      "isFixedGasLimit": false
    }
  ],
  "receipts": [
    {
      "status": "0x1",
      "cumulativeGasUsed": "0x7657e3",
      "logs": [
        {
          "address": "0x31c86930c933e7ac0f9b84187b7cfe776335f678",
          "topics": [
            "0x610ef80c06b13af92a2fea0c71e3a5eb643a09c80a8fda0a0139e256d2db3e02",
            "0x0000000000000000000000000000000000000000000000000000000000000001",
            "0x0000000000000000000000003d849a98e5147a416f63f0b7c664b861b234ef5f"
          ],
          "data": "0x000000000000000000000000000000000000000000000000000000000000008000000000000000000000000000000000000000000000000000000000000000c00000000000000000000000000000000000000000000000000000000005f5e10000000000000000000000000000000000000000000000000000000000689614d0000000000000000000000000000000000000000000000000000000000000000d546573742043616d706169676e00000000000000000000000000000000000000000000000000000000000000000000000000000000000000000000000000001754686973206973206120746573742063616d706169676e000000000000000000",
          "blockHash": "0x99f7f5869f84a86f5074a68658b46a1a9aa2bd2a167deee8f069ddd60e15de8e",
          "blockNumber": "0x1ad9480",
          "blockTimestamp": "0x686e87e0",
          "transactionHash": "0x65e54f86ba4098a779597ac3b53d550986611a8edfe054a3efb2eb07b7e7fc95",
          "transactionIndex": "0x1d",
          "logIndex": "0xf0",
          "removed": false
        }
      ],
      "logsBloom": "0x00000000000000000000000000000010000000000000000000000000000000000000000008000000040000800000000000000000000000000000000000040000000000000000000000000000000000000000000000040000000000000000000000000000000000000000000000000000000000000000000000800000000000000000000000000000000000000000000000000002000000000000000000000000000000000000000000000000000000000000408000000000000000000000000000000000000000000000000000000000000000000000000000000000000040000000000000000000800000000000000000000000000000000000000000000000",
      "type": "0x2",
      "transactionHash": "0x65e54f86ba4098a779597ac3b53d550986611a8edfe054a3efb2eb07b7e7fc95",
      "transactionIndex": "0x1d",
      "blockHash": "0x99f7f5869f84a86f5074a68658b46a1a9aa2bd2a167deee8f069ddd60e15de8e",
      "blockNumber": "0x1ad9480",
      "gasUsed": "0x2e980",
      "effectiveGasPrice": "0xf42c4",
      "from": "0x3d849a98e5147a416f63f0b7c664b861b234ef5f",
      "to": "0x31c86930c933e7ac0f9b84187b7cfe776335f678",
      "contractAddress": null,
      "l1BaseFeeScalar": "0x44d",
      "l1BlobBaseFee": "0x34a2f9df",
      "l1BlobBaseFeeScalar": "0xa118b",
      "l1Fee": "0x119c61581d",
      "l1GasPrice": "0x110fc40",
      "l1GasUsed": "0x81b"
    }
  ],
  "libraries": [],
  "pending": [],
  "returns": {},
  "timestamp": 1752074208,
  "chain": 84532,
  "commit": "9909f9a"
}